:100000000C9426070C9443070C9443070C944B3331
:100010000C9443070C9443070C9443070C94430738
:100020000C9443070C9443070C94F0150C94091A94
:100030000C943F280C9443070C9443070C944307FB
:100040000C9443070C9443070C9443070C94430708
:100050000C9443070C94C9160C9443070C94430763
:100060000C9443070C9443070C9443070C944307E8
:100070000C9443070C9443070C9443070C944307D8
:100080000C9443070C9443070C9443070C944307C8
:100090000C9443070C9443070C9443070C944307B8
:1000A0000C9443070C9443070C9443070501090281
:1000B000A10185020901A1000509190129081500FE
:1000C0002501950875018102050109300931158165
:1000D000257F95027508810609381581257F9501D0
:1000E00075088106050C0A38021581257F95017572
:1000F000088106C0C005010980A101850319012AF4
:10010000B700150126B700950175108100C0050CD8
:100110000901A101850419012AA002150126A002E6
:10012000950175108100C00660FF0961A101096297
:10013000150026FF00952075088102096315002629
:10014000FF00952075089102C005010906A101056F
:100150000719E029E7150025019508750181029529
:1001600001750881010507190029FF150026FF0008
:100170009506750881000508190129051500250156
:10018000950575019102950175039101C00000006C
:10019000000000000000000000000000000000005F
:1001A000000000000000000000000000000000004F
:1001B000007E0F00D4FFFFFFC700000078000000A2
:1001C00000000000002A2B280000000000000000B2
:1001D000000000000000000029000000002C1E3478
:1001E00020212224342627252E362D3738271E1F7E
:1001F000202122232425263333362E37381F0405A9
:10020000060708090A0B0C0D0E0F10111213141516
:10021000161718191A1B1C1D2F3130232D350405F4
:10022000060708090A0B0C0D0E0F101112131415F6
:10023000161718191A1B1C1D2F3130354C00DA12F5
:1002400081FFD9F1DB20A4A62EAF00A0C0D300000F
:10025000A1C8D30000AED580A83F408D1420000077
:10026000AE0000000000000000000181FFFFEBF580
:10027000E1E1E1E1E1A155FF8101000000000000A2
:10028000000000000000000000E040A141A0FFAA23
:100290004464BB44A0FFA041A140E0000000000076
:1002A00000000000000000020000008080C0E0F0BC
:1002B00078BC3C7870E0C08084000000000000043E
:1002C00000004000000000000000000040000100AD
:1002D00000000010000000000000000000100000FE
:1002E000004B65656273006F6365616E000000001E
:1002F0000000000000000001030307070F0F0707BD
:1003000003030101000000000000000000000000E5
:10031000113A3A7C7CF8F8F1E3E3C7C78F8FC7C77F
:10032000E3E3F1F0F87C7C3A3A11000000000000B1
:1003300010B8B87C7CFEFEFFFFFFFFFFFFFFFFFF52
:10034000FFFFFFFFFE7C7CB8B8100000000000003B
:1003500000000000000000008080C0C0E0E0C0C0DD
:10036000808000000000000000000000000000008D
:100370000000000000000001020204040808040458
:100380000202010100000000000000000000000067
:10039000112B2B47478F8F1F3E3E7C7CF8F87C7CCF
:1003A0003E3E1F1F8F47472B2B110000000000000F
:1003B00010A8A8C4C4828201000000000000000050
:1003C0000000018182C4C4A8A81000000000000041
:1003D00000000000000000008080404020204040DD
:1003E000808000000000000000000000000000000D
:1003F00000000000000000010202040408080404D8
:1004000002020101000000000000000000000000E6
:10041000112A2A4444888811232347478F8F47474E
:10042000232311108844442A2A11000000000000F0
:1004300010B8B87C7CFEFEFFFFFFFFFFFFFFFFFF51
:10044000FFFFFFFFFE7C7CB8B8100000000000003A
:1004500000000000000000008080C0C0E0E0C0C0DC
:10046000808000000000000000000000000000008C
:100470000000000000000001030307070F0F07073B
:100480000303010100000000000000000000000064
:10049000113A3A7C7CF8F8F1E2E2C4C48888C4C41A
:1004A000E2E2F1F0F87C7C3A3A1100000000000032
:1004B00010A8A8444482820100000000000000004F
:1004C00000000181824444A8A81000000000000040
:1004D00000000000000000008080404020204040DC
:1004E0008080000000000000000000000000AF005D
:1004F00001010101010101010102020202020202E5
:1005000002020303030303030303040404040404B7
:10051000040505050505060606060607070707077D
:1005200008080808090909090A0A0A0B0B0B0C0C30
:100530000C0D0D0D0E0E0E0F0F0F101011111112CC
:100540001213131414151516161717181819191A4B
:100550001A1B1B1C1D1D1E1E1F20202122222324AE
:1005600024252626272829292A2B2C2D2D2E2F30ED
:10057000313232333435363738393A3B3C3D3E3F01
:10058000404142434445464748494A4C4D4E4F50EE
:10059000515354555658595A5B5D5E5F61626465AC
:1005A0006668696B6C6D6F7072737577787A7B7D36
:1005B0007E8082838587888A8C8E8F91939596988A
:1005C0009A9C9EA0A2A3A5A7A9ABADAFB1B3B5B7A6
:1005D000BABCBEC0C2C4C6C9CBCDCFD1D4D6D8DB7D
:1005E000DDDFE2E4E7E9EBEEF0F3F5F8FAFDFF29F1
:1005F000001E001F00200021002200230000002B0D
:100600000014001A0008001500170000000000E2A6
:100610000004001600070009000A0000000000E1C5
:100620000064001D001B000600190005000000E02A
:1006300000E30021522C0000000000000000004AEE
:10064000002A002E002D0027002600250024004D42
:1006500000280030002F00130012000C0018004B7F
:10066000003100340033000F000E000D001C004E5E
:10067000005200E50038003700360010000B004F34
:100680000051005000E6002A002C00225211000107
:10069000003A003B003C003D003E003F00000001EE
:1006A0000001000100010001000100000000003510
:1006B000001E021F0220022102220200000000018F
:1006C0000001000100010001000100010000000123
:1006D0000001000100010000000000000000000116
:1006E0000045004500440043004200410040000135
:1006F00000010001000100010001000100010001F2
:100700000001003502270226022502240201000111
:1007100000010030022F022E022D023102230201BD
:10072000000100010001000100010063520100010D
:10073000003A003B003C003D003E003F000000014D
:10074000000100010001000100010000000000356F
:10075000001E021F022002210222020000000001EE
:100760000001000100010001000100010000000182
:1007700000010063520100000000000000000001C1
:100780000045004500440043004200410040000194
:100790000001000100010001000100010001000151
:1007A0000001003502270226022502240201000171
:1007B00000010030022F022E022D0231022302011D
:1007C0000001000100010001000100010001000121
:1007D000003A003B003C003D003E003F00000001AD
:1007E00000010001000100010001000000000035CF
:1007F000001E021F0220022102220200000000014E
:1008000000010001000100010001000100000001E1
:100810000001006352010000000000000000000120
:1008200000450045004400430042004100400001F3
:1008300000010001000100010001000100010001B0
:1008400000010035022702260225022402010001D0
:1008500000010030022F022E022D0231022302017C
:1008600000010001000100010001006352010009C4
:10087000025B00030100A0FA09040000010301016A
:10088000000921110100012244000705810308002D
:100890000109040100020300000009211101000107
:1008A0002222000705820320000107050303200020
:1008B00001090402000103000000092111010001E7
:1008C000227B0007058403200001120100020000C2
:1008D0000008131067110001010200011203530008
:1008E00070006C00690074002000360037000000C2
:1008F00016036F006300650061006E004B00650029
:100900006500620073000000040309040000000099
:1009100000003E5B4F5B3E003E6B4F6B3E001C3E5B
:100920007C3E1C00183C7E3C18001C577D571C0068
:100930001C5E7F5E1C0000183C180000FFE7C3E748
:10094000FF00001824180000FFE7DBE7FF00304835
:100950003A060E00262979292600407F0505070062
:10096000407F05253F005A3CE73C5A007F3E1C1C57
:100970000800081C1C3E7F0014227F2214005F5FC9
:10098000005F5F0006097F017F00006689956A00AD
:1009900060606060600094A2FFA2940008047E047E
:1009A000080010207E20100008082A1C0800081CDF
:1009B0002A0808001E10101010000C1E0C1E0C003F
:1009C00030383E383000060E3E0E060000000000B3
:1009D000000000005F000000000700070000147F17
:1009E000147F1400242A7F2A120023130864620053
:1009F000364956205000000807030000001C224121
:100A000000000041221C00002A1C7F1C2A0008084C
:100A10003E08080000807030000008080808080040
:100A20000000606000002010080402003E514945AB
:100A30003E0000427F400000724949494600214182
:100A4000494D33001814127F1000274545453900E1
:100A50003C4A4949310041211109070036494949B9
:100A60003600464949291E000000140000000040DD
:100A7000340000000008142241001414141414005F
:100A80000041221408000201590906003E415D5947
:100A90004E007C1211127C007F49494936003E41CC
:100AA000414122007F4141413E007F494949410087
:100AB0007F09090901003E41415173007F08080880
:100AC0007F0000417F4100002040413F01007F083E
:100AD000142241007F40404040007F021C027F0002
:100AE0007F0408107F003E4141413E007F09090913
:100AF00006003E4151215E007F0919294600264922
:100B00004949320003017F0103003F4040403F005C
:100B10001F2040201F003F4038403F00631408144E
:100B200063000304780403006159494D4300007FCA
:100B300041414100020408102000004141417F0072
:100B40000402010204004040404040000003070846
:100B500000002054547840007F2844443800384432
:100B600044442800384444287F0038545454180022
:100B700000087E0902001824241C78007F08040461
:100B8000780000447D4000002040403D00007F1080
:100B90002844000000417F4000007C047804780075
:100BA0007C08040478003844444438007C18242429
:100BB0001800182424187C007C08040408004854F9
:100BC0005454240004043F4424003C4040207C0052
:100BD0001C2040201C003C4030403C004428102891
:100BE00044004C9090907C004464544C44000008B5
:100BF0003641000000007700000000413608000088
:100C00000201020402003C2623263C0000000000F2
:100C100000000000C0E0F0F8F81800C0F0FCFEFF93
:100C2000FFFFFFFFFFFF7E00000000F8042252E2FA
:100C3000424242E252222222428202022222020442
:100C4000F80000F80402028242224282020202827A
:100C50004222122242820204F80000F8FCDEAE1E9C
:100C6000BEBEBE1EAEDEDEDEBE7EFEFEDEDEFEFCF6
:100C7000F80000F8FCFEFE7EBEDEBE7EFEFE00003A
:100C80000000000080804040202010100808101054
:100C90002020404080808080C0C0E0E0F0F0F8F884
:100CA000F0F0E0E0C0C08080808040402020101044
:100CB00008081010202040408080808040C060A044
:100CC00050B058A850B060A040C0808000F8FCFE32
:100CD000FFE000FFFFFFFFFFFF80FFFFFFFFFFFFC1
:100CE000FFFFFF1F070100000000001F20444A47CC
:100CF000424242474A4440404040414244444020EE
:100D00001F00001F204041404040404041404141C1
:100D10004F4848484F4141201F00001F3F7B7578D6
:100D20007D7D7D78757B7F7F7F7F7E7D7B7B7F3F39
:100D30001F00001F3F7F7E7F7F7F7F7F7E7F0000C1
:100D40000000000088885D5D3E3E7C7CF8F87C7C7D
:100D50003E3E5D5D888888885555232347478F8FA1
:100D600047472323555588888888D5D5E2E2C4C4EF
:100D70008888C4C4E2E2D5D5888888885DD56BB6FA
:100D80006DD6ADDA6DD66BB65DD5888800030F1FC2
:100D90003F3F3F3F1F1F3F3F7F7F7F3F3F1F3F7FC3
:100DA0007F7F7F7C7878381C0F0004F80000F804FF
:100DB000201F00001F20FCF80000F8043F1F000067
:100DC0001F2004F80000F8FC201F00001F3FFCF863
:100DD0000000F8FC3F1F00001F3FFE7EBEDEEEDE7F
:100DE000BE7EFEFCF8007E7E70777777707E7E3F59
:100DF0001F000000000000000000000000000000D4
:100E000000000000000001010202040408080404BC
:100E100002020101000000000101020204040808AE
:100E2000040402020101000000000101030307079E
:100E30000F0F070703030101000000000101030277
:100E400005060D0A050603020101000011241FBE5C
:100E5000CFEFDAE0DEBFCDBF11E0A0E0B1E0ECE41F
:100E6000FEE602C005900D92A63DB107D9F728E035
:100E7000A6EDB1E001C01D92A73CB207E1F70E94C8
:100E800066280C94BD360C940000CF93DF934091FC
:100E9000C5085091C608455C54409A01205E3F4FFA
:100EA00021303440C0F020E034E0241B350B609149
:100EB000C3047091C404FC01CA01240F351FC1E0B2
:100EC000D0E08217930750F07093C4046093C3047A
:100ED000DF91CF91089520E230E0E9CF4491DC0129
:100EE000AB53BB4F5C91451781F04C93AC01A6E02E
:100EF00056954795AA95E1F7DE0102C0AA0FBB1FE0
:100F00004A95E2F7AD016A2B752B01963196D9CF40
:100F1000482F2091B80490917F0457E0291302C014
:100F200080E0089530E0529FF001539FF00D1124AE
:100F3000E058FB4F8181681306C08081481303C0CD
:100F400085818111EECF2F5F3F4F2770E7CFE8ED0E
:100F5000F0E080818E7F80831092E2001092DA00B0
:100F60001092E100A0EEB0E08C9181608C938081C2
:100F70008F77808319BCA7EDB0E08C918E7F8C9326
:100F800080818F7E80831092680408952091E40010
:100F90003091E50095E6A9012091EC00822F817047
:100FA00020FF06C08091E80080FF06C080E0089521
:100FB0002091E80022FD1AC080917504882389F0F1
:100FC000853089F08091EB0085FD0FC02091E40011
:100FD0003091E50042175307F9F29150E1F684E0B1
:100FE000089582E0089583E0089581E00895809156
:100FF000770487FF13C08091E80082FF06C08091CC
:10100000E8008B778093E80004C08091750481111B
:10101000F2CF0895809175048823D9F38091E80078
:1010200080FFF8CF8091E8008E77ECCF982F9093D7
:10103000E900242F762F50E0891731F07091EC00F1
:101040002091ED005091F00021FD07C09F5F973087
:1010500071F78093E90081E008953091EB003E7FC5
:101060003093EB003091ED003D7F3093ED003091F7
:10107000EB0031603093EB007093EC002093ED00B7
:101080005093F0002091EE0027FDE0CF80E008951E
:10109000B0E0A0E0EEE4F8E00C948534C8EDD0E0D8
:1010A00088818F7E8883E7EDF0E080818160808396
:1010B00084E082BF81E08093680488818E7F88838A
:1010C00002EE10E0F80110821092DA0081EEC82ED4
:1010D000D12CF601108288818F778883888180687F
:1010E000888388818F7D888319BC10927504109243
:1010F0007604109274041092730490EEE92EF12C91
:10110000F70180818B7F808388818160888342E0C2
:1011100060E080E00E941608F60180818E7F808367
:10112000F801808181608083808188608083F701FD
:1011300080818E7F8083888180618883CDB7DEB790
:10114000E8E00C94A134FC0180917D0490917E0430
:1011500086179707A0F06115710529F49091E800B2
:101160009E779093E80090E06115710551F491111C
:1011700008C08091E80082FF34C080E00895BC017F
:10118000F2CF809175048823C1F18530C1F180913F
:10119000E80083FD30C08091E80082FDEACF8091B5
:1011A000E80080FFE1CF8091F3002091F200382F1A
:1011B0006115710519F02830310558F091E028309B
:1011C000310509F090E02091E8002E772093E800A7
:1011D000CBCF81918093F100615071092F5F3F4F18
:1011E000E7CF80917504882341F0853041F08091EC
:1011F000E80083FFBECF81E0089582E0089583E098
:101200000895089580916A04089587E797E7909379
:1012100001088093000888E19AE00FB6F894A89539
:10122000809360000FBE90936000FFCF2FB7F894BB
:1012300060916404709165048091660490916704E4
:101240002FBF0895DC01FB0111969C9111978181BC
:10125000981322C012968C911297882319F09281CC
:1012600089131AC013968C911397882319F09381D0
:10127000891312C015968C911597882319F09581C2
:1012800089130AC014969C91992321F081E024814E
:10129000291303C080E001C081E0817008959C01A2
:1012A000FC0132969FEF80E04191461751F09F3F3D
:1012B00019F4411101C0982F8F5F8630A9F79F3F25
:1012C00009F40895290F311D97FD3A95F9016283BC
:1012D0000895A3E0B0E0EFE6F9E00C948B342091A0
:1012E00061043091620428173907A1F090936204D9
:1012F00080936104E0915F04F0916004309751F0B5
:1013000024E029839B838A830084F185E02DCE012C
:10131000019609952396E2E00C94A734A3E0B0E08F
:10132000E4E9F9E00C948B3420915D0430915E0483
:1013300028173907A1F090935E0480935D04E09133
:101340005F04F0916004309751F023E029839B8380
:101350008A830084F185E02DCE01019609952396BC
:10136000E2E00C94A734E0915F04F09160043097C0
:1013700039F022E0DC012C930680F781E02D0995FD
:10138000089580915B04882359F0E0915F04F09107
:101390006004309729F00190F081E02D09950895BF
:1013A00080E008958091500480FD16C081FD16C034
:1013B00082FD16C080914F048823A1F0883280F40A
:1013C00028E0829FC001112468E270E00E94BE34D0
:1013D000862F672B39F0089582E0089584E0089500
:1013E00088E0089581E008958091500480FD14C044
:1013F00081FD14C082FD16C080914E04882381F0C7
:101400008E3180F420E5829FC00111246EE170E0EE
:101410000E94BE34862F089584E1089588E20895DD
:1014200088E0089580E50895282F35EB2303C00157
:10143000112497FF04C080589109892F089580587E
:101440009F4FFBCFFC01680F791F8FEF91E3219134
:10145000822728E030E087FF09C0880F89272150C4
:101460003109C9F7E617F70791F70895880FF7CF05
:101470002091BC0436E0839FC0011124629F800D3F
:10148000911D1124811524E0920714F090E080E072
:101490008B539B4F9093C6088093C5080895FA011B
:1014A000811101C0FB010995089560916801809147
:1014B000460480FF0CC070E08091670123E0829FAA
:1014C000C0011124865E9C4F0E947B0F089580917D
:1014D000690190916A0123E0829FF0011124E65E88
:1014E000FC4F891740F71182108212828F5F33966A
:1014F000F8CFE6E4F4E080818E7F8083E7E1F3E0DB
:101500008281816082830E94550A089580914604F9
:10151000982F9C7F71F4809146048370846080933F
:10152000460480914904813818F080E8809349048A
:101530000895883080F7F5CFACE0B0E0E2EAFAE059
:101540000C948B344F83588769877A878B879C8765
:1015500086E0FE013796DE01119601900D928A9584
:10156000E1F729813A814B815C816D817E8180E048
:1015700090E02C96E2E00C94A73480E00895F89473
:10158000E82FE295EF70F0E031A1282F2F7081E075
:1015900090E001C0880F2A95EAF7982F9095932341
:1015A00091A392A1892B82A3789408950F931F93FE
:1015B00080915B04882329F00E9416091F910F91E6
:1015C00008950E9416090091990210919A022091A3
:1015D0009B0230919C02600F711F821F931FEECF00
:1015E0009091A90292FF10C041E0282F247124306D
:1015F00009F040E031E0282F2871283009F030E070
:10160000431711F02CE0822793FF10C041E0282FF0
:101610002471243109F040E031E0282F287128316D
:1016200009F030E0431711F02CE082273091AA0234
:1016300030FF10C051E0282F2171213009F050E017
:1016400041E0282F2871283009F040E0541711F0AC
:1016500029E0822731FF10C041E0282F217121317C
:1016600009F040E031E0282F2871283109F030E0FE
:10167000431711F029E0822794FD877E0895823870
:101680009105B9F1B0F48133910509F47DC048F4B6
:101690008932910509F46DC08A32910509F47BC045
:1016A00008958533910509F45FC08933910509F1E7
:1016B0000895833E9105D9F138F4803E910529F1D2
:1016C000823E910579F10895863E9105D9F1873ED4
:1016D000910509F43EC0843E910541F52091AA028E
:1016E00021FF24C08091A90284FD19C087EE90E0FB
:1016F00008952091A902237009F05AC02091AA02EE
:1017000023FF14C089E290E008952091A90220FDF2
:1017100038C03091AA0230FF09C024FF43C090E0D6
:1017200080E008952091A90222FDF7CF089520912D
:10173000A90222FD3AC03091AA0230FD39C024FF2F
:10174000F5CFEDCF2091A90223FFF0CF24FDE7CF05
:10175000CDCF2091A90223FD2EC03091AA0231FFE6
:10176000EECF84EE90E008952091A90225FFDECF10
:10177000C9CF2091A90225FD21C02091AA0223FFF3
:10178000D5CF89E390E0D2CF2091A90226FFCECF1A
:101790008AE290E008952091A90226FFC7CF81E355
:1017A00090E0089583EE90E0089582EE90E0089531
:1017B00080EE90E0089586EE90E0089585E390E055
:1017C00008951F93CF93DF930E943F0BEC01C11547
:1017D00080E5D807F0F5C11580E4D80708F09CC073
:1017E000C03ED10520F5CD3CD10508F082C0C83AF5
:1017F000D10578F4C53AD10508F073C0C130D105E0
:1018000019F1209709F1C430D105F0F4D0E0C0E01F
:101810001BC0C33CD105D0F7C85AD0E0CC0FDD1FA8
:10182000C059DE4F0990D881C02DD4640DC0C115B8
:1018300080E2D80708F0D1C0C11581E0D80708F0D0
:101840005AC0C83ED10510F7CE01DF91CF911F914C
:101850000895C03682E5D80718F5C03482E5D80768
:1018600008F06BC0C03282E5D80708F05FC0C11530
:1018700082E5D80708F497C02C2F2695269580E29C
:10188000289F900111248C2F8370C1E0D0E002C00A
:10189000CC0FDD1F8A95E2F7C22BD32BDD68D4CFA6
:1018A000C03A82E5D80760F4C03882E5D80708F46A
:1018B00059C0CF71D0E0DC2FCC27C46FD06AC4CF21
:1018C000C03C82E5D80708F462C0C03E82E5D80774
:1018D00008F09CCFDC2FCC27CC27DF71C06FD06AFB
:1018E000B3CFC55AD0E0C359DE4FC881D0E0D06431
:1018F000ABCFD065A9CF8D2F0E94F00A182FCE0153
:1019000099270E943F0BC12FD0E0DC2FCC27CC279A
:10191000DF71C82BD92B98CFCE0199270E943F0B9E
:10192000CC27DF70C82BD92BD06A8ECFCF71D0E0F7
:10193000DC2FCC27C16FD06A87CF2C2F2695269518
:10194000277080E2289F900111248C2F8370C1E0C2
:10195000D0E002C0CC0FDD1F8A95E2F7C22BD32B5B
:10196000DC6872CF2C2F26952695277080E2289F61
:10197000900111248C2F8370C1E0D0E002C0CC0F05
:10198000DD1F8A95E2F7C22BD32BDA685DCF8C2F4F
:101990008F710E94F00AC82FD0E0DC2FCC27CC2713
:1019A000DF71D06251CF8C2F8F710E94F00A55E009
:1019B000D695C7955A95E1F7CF70D0E0DC2FCC27AC
:1019C000282F30E084FF05C044E0220F331F4A95E2
:1019D000E1F7C22BD32BD06937CF8D2F8F710E94A7
:1019E000F00A182FCE0199270E943F0BC12FD0E09B
:1019F000DC2FCC27CC27DF71C82BD92BD2CF8095F9
:101A00009091890298239093890208958091B80457
:101A100090917F04981301C008958F5F8770FACF6B
:101A20009A3080F5883070F548E0949F9001112439
:101A3000820F932F911D682F677023E096958795ED
:101A40002A95E1F7FC01EE0FFF1FE80FF91FEE5E8C
:101A5000FD4F50E040E080E0219130E0062E02C0D2
:101A6000369527950A94E2F721703327042E01C09A
:101A7000220F0A94EAF7822B4F5F5F4F43305105E4
:101A800059F7089580E008959A3098F5883088F5E0
:101A900048E0949F90011124820F932F911D282FCD
:101AA000277041E001C0440F2A95EAF723E096959C
:101AB00087952A95E1F7FC01EE0FFF1FE80FF91F4C
:101AC000EE5EFD4F90E080E070E05191DF011197F4
:101AD0009B01082E02C0369527950A94E2F72170E3
:101AE00021952527242325272C93019683309105C2
:101AF00061F708958093B90208959091B90221E0A9
:101B000030E0F90101C0EE0F8A95EAF7D90102C071
:101B1000AA0FBB1F6A95E2F7EA2B01C0220F4A9574
:101B2000EAF7892F8E23E81305C0292B822F0E9404
:101B30007A0D089520952923F9CF21E030E001C0E6
:101B4000220F8A95EAF720958091B90282230E949C
:101B50007A0D0895909137028095892380933702FA
:101B6000282F277069F4891759F09091AA0292FFE3
:101B700007C08695869586950E949D0D1092370226
:101B8000089521E030E001C0220F8A95EAF78091A4
:101B9000B902822B0E947A0D0895809384020895E1
:101BA0009C01832F817031FD8260FB0109950895AE
:101BB000CF936BE073E081E193E00E942209C82F8C
:101BC000882321F081E193E00E94B30990911203F0
:101BD00086E0E1E1F3E0DF01282F1D922A95E9F785
:101BE00090931203ABE0B3E001900D928A95E1F778
:101BF00081E0C11103C0911101C080E08170CF91DB
:101C00000895CF93DF93C091C508D091C6088A305C
:101C1000C1F42091BC04CE01855C9440622F70E039
:101C20000E946734281B822F66E00E94B234C82FBE
:101C3000C15018F4DF91CF91089580E20E94010E07
:101C4000F7CF8D30E9F4C55CD4402091BC04622FFD
:101C500070E0CE010E946734281B822F9E01280F5E
:101C6000311D2115344018F080E0D0E0C0E0C80FED
:101C7000D11DCB53DB4FD093C608C093C508DACF34
:101C800096E0FE01ADEBB4E001900D929A95E1F77C
:101C9000803E08F458C086E0FE0111928A95E9F76B
:101CA000C091C508D091C60846E050E0BE018DEB5A
:101CB00094E00E941E359E01255C3440892B41F141
:101CC000C90146E0969587954A95E1F741E050E0D5
:101CD000BA0102C0660F771F8A95E2F7CB016091C7
:101CE000C3047091C404862B972BB9016B5F7F4F9F
:101CF000E6E076956795EA95E1F702C0440F551F37
:101D00006A95E2F7842B952B9093C4048093C304C7
:101D10002A5F3F4F4091BC04642F70E0C9010E94CC
:101D20006734481B463010F4240F311D211574E030
:101D3000370710F030E020E02B533B4F3093C608BC
:101D40002093C50877CFF6E08F9FB0011124645F20
:101D5000764F46E050E0CE010E941535A1CFCF93DB
:101D6000DF93EC01FE018491811103C0DF91CF91DB
:101D700008950E94010E2196F5CF2091890280914D
:101D80008A02282B80918B02882381F0282B30E057
:101D90008AED91E0FC014191CF0141113F5FF1E0FB
:101DA000803E9F07B9F7311110928B022093D80122
:101DB00048E050E068E372E088ED91E00E941E3553
:101DC000892BA9F088E0E8EDF1E0A8E3B2E001900A
:101DD0000D928A95E1F7E0915F04F09160043097ED
:101DE00031F00280F381E02D88ED91E009950895AE
:101DF000882341F0809590918A02892380938A02FA
:101E00000E94BD0E0895882339F090918A02982B84
:101E100090938A020E94BD0E0895882321F00E94AB
:101E2000FF0C0E94BD0E0895882339F0909189021D
:101E3000982B909389020E94BD0E08950F931F93D3
:101E4000CF93DF938B01EA0190917504943061F593
:101E50008093E9008FEF9091E800815095FD06C0D6
:101E600095ED9A95F1F700008111F5CF8091E8008A
:101E700085FF1AC00E94C607811111C08091E80039
:101E800085FD06C08091E8008E778093E800F2CF50
:101E9000F80181918F018093F100219779F780916A
:101EA000E8008E778093E800DF91CF911F910F912A
:101EB000089543E050E0BC0184E00E941E0F0895A5
:101EC00046E050E0BC0184E00E941E0F0895CF93CD
:101ED000DF93EC0148E050E0BC0181E00E941E0F5E
:101EE00088E0FE01ABE6B4E001900D928A95E1F73F
:101EF000DF91CF910895539A4BB1477F5BB1586002
:101F0000EFB7F8949B01220F331F260F371F280FBE
:101F1000391F2817390741F4EFBF8FE594E0019787
:101F2000F1F700C000000895DC016D91CD0178E06B
:101F30005BB9000000C067FF4BB9660F000000C02E
:101F400000C000C04BB900C07A9591F7E2CFB0E075
:101F5000A0E0EDEAFFE00C9483347C015B016A01B0
:101F60008091980201E010E08A3010F40AE010E05D
:101F7000C1E0D0E0B501C701F6010995811104C0A7
:101F800021960C171D072CF4CDB7DEB7EAE00C94B0
:101F90009F34CC9F9001CD9F300D300D112490E0E7
:101FA00080E045E34A95F1F7000001968217930718
:101FB000C1F7E0CFCF93C82F6FEF811164E285E2C4
:101FC00090E00E9458356FEFC11164E086E290E026
:101FD0000E9458356FEFC11162E087E290E00E94E5
:101FE0005835CF910895CF93DF93C9EAD2E060E0EE
:101FF000CE010E9458352196C11584E0D807B9F763
:10200000DF91CF9108951F93CF93DF93122F8430E8
:10201000E0F46A30D0F44830C0F490E1699FE00108
:10202000112450E0440F551FC40FD51F90EA899F1B
:10203000C00DD11D1124632FCE0189960E94583501
:10204000612FCE018A960E945835DF91CF911F9162
:102050000895AF92BF92CF92DF92EF92FF921F93BB
:10206000CF93DF938FEEC82E85E0D82ED0E0760197
:10207000C0E014C0F50125913491412F6C2F8D2FB4
:102080000E94031082E0A80EB11C1F5F183091F768
:1020900080E1E80EF11CCF5FCA3019F0570110E063
:1020A000E9CFDF5F80EAC80ED11CD43001F7DF91A1
:1020B000CF911F91FF90EF90DF90CF90BF90AF90A6
:1020C000089580E00E94DA0F60E088E290E00E94CC
:1020D00058350E9429100E94F30F81E00E94DA0F08
:1020E000089585E290E00E943435843289F486E2D6
:1020F00090E00E943435843059F487E290E00E94E9
:10210000343591E0823009F090E0892F8170089594
:1021100080E0FCCF0F931F93CF93DF93843030F593
:102120006A3020F5483010F520E1629F80011124CB
:1021300050E0440F551F040F151F30EA839F000D18
:10214000111D1124C80189960E943435C82FD0E092
:10215000DC2FCC27C8018A960E9434359E01282B9B
:10216000C901DF91CF911F910F91089590E080E018
:10217000F8CF462F7A3040F4683030F4843020F4C1
:10218000672F0E948A10089590E080E00895CF9212
:10219000DF92FF920F931F93CF93DF936C01009117
:1021A000B90280918402082BC3E0D0E010E0FC2E3D
:1021B000C8010C2E02C0959587950A94E2F780FD20
:1021C0000CC02197A0F7F12C8F2DDF91CF911F919B
:1021D0000F91FF90DF90CF900895B6018C2F0E9451
:1021E000B9100E94E10B019761F3EECFCF93DF931B
:1021F000EC010E94C710BE010E94B9100E94E10BC1
:10220000DF91CF910895FC0124812223C1F08081C8
:1022100091810E94F61092959F70963091F058F43B
:10222000925F9F70923058F4803F19F030F4883EEE
:1022300030F481E008959A5FF4CF843FD1F380E0D9
:102240000895883EB0F3813FD1F7F3CFA6E0B0E028
:10225000ECE2F1E10C948A3449835A8349815A8132
:102260009923A1F0222391F0CA010E94C710182FD0
:10227000682F89819A810E94440D69817A81812F1A
:102280000E94B9102696E3E00C94A634CA010E947D
:10229000100D182FF2CFAB0124E630E0BC0188E727
:1022A0000E942E3121E0892B09F020E0822F089531
:1022B000B0E0A0E0EEE5F1E10C94813449015A016F
:1022C0006B017C010E94860A8401A4016A2D7B2D8A
:1022D00088E090E00E946A3594014A2D5B2DB6019A
:1022E000C70100E20E94FA34622F84E290E00E946B
:1022F0005835CDB7DEB7ECE00C949D34B0E0A0E0EB
:10230000E4E8F1E10C948134182FC62FD42F822EEB
:102310000091460400FF51C080914704811308C01A
:1023200080914804861304C080914904841729F0E1
:1023300080911903826080931903E02FE695E6955A
:10234000F0E0EB53FE4F808180931703802F8C7F4A
:102350008430E9F4ED2FD13808F0E0E8F0E0E15105
:10236000FB4FC1112FC02491F22FE22F00FF0FC0AD
:102370008091690190916A0133E0839FD00111241B
:10238000A65EBC4F891708F492C00E94550A1093AC
:102390004704C0934804D0934904882071F02091E9
:1023A000460460914A0470914B04312FAE01809134
:1023B0004C0490914D040E945811CDB7DEB7ECE06B
:1023C0000C949D34EC2EF12CE4919E2ECE2ED12C2B
:1023D00026E0129FC00111242FEF30E0B9010E94C6
:1023E0006734812F90E0880F991FF5E5F69FA001D3
:1023F000F79F500D1124841B950BB82EBB0CB80E03
:10240000A9014E195F094C9DC0014D9D900D5C9D29
:10241000900D1124F92FCB9DA0011124452F552794
:10242000D901A41BB50BAC9DA001AD9D500DBC9D69
:10243000500D1124D901AB19B1095D01AE9CD00139
:10244000AF9CB00DBE9CB00D1124AB2FBB272A1B37
:102450003B0B2C9DD0012D9DB00D3C9DB00D11244A
:102460002B2F62307105A1F050F46115710509F44C
:102470007DCF6130710581F0292FF52F77CF643042
:10248000710569F080F06630710509F46FCFF4CF03
:102490002E2FE92FFB2F6ACF2E2FE52F67CF292F65
:1024A000FE2FEB2F63CFE92FF92D252F5FCF11964C
:1024B000EC9311972C931296FC9312978F5F1396BF
:1024C00061CFE6E4F4E0438128E0421B08F440E0F9
:1024D00021E0628181810E947E110895E6E4F4E0AA
:1024E000438128E0420F08F44FEF21E062818181AF
:1024F0000E947E110895E6E4F4E0628128E0621B08
:1025000008F460E021E0438181810E947E110895FA
:10251000E6E4F4E0628128E0620F08F46FEF21E066
:10252000438181810E947E110895E6E4F4E0818177
:1025300021E04381628188500E947E110895E6E483
:10254000F4E0818121E043816281885F0E947E11F5
:10255000089580914A04882319F0815080934A0499
:102560002091460430914704409148045091490419
:1025700060914A0470914B0480914C0490914D04F9
:102580000E945811089580914A04833018F48F5F97
:1025900080934A04209146043091470440914804B6
:1025A0005091490460914A0470914B0480914C040D
:1025B00090914D040E94581108952091460420FFE7
:1025C00024C0237024602093460480911903816005
:1025D00080931903662381F03091470440914804A9
:1025E0005091490460914A0470914B0480914C04CD
:1025F00090914D040E94581120E04091490460914F
:102600004804809147040E947E110895E6E4F4E0B6
:1026100080818160808360E0869586950E94DD12CE
:1026200008958091460486958695815009F481E04D
:1026300061E00E94DD12089561E081E00E94DD12F8
:1026400008959091AA0292FB222720F9281779F089
:1026500080FB92F99093AA026091A9027091AA025C
:1026600084E090E00E94763582E00E94AA0D0895F1
:1026700090E080E00E944235863E9E4F19F40E9411
:102680007110089580E00895B0E0A0E0EAE4F3E17D
:102690000C9486347901C82F880FDD0B4115510544
:1026A000A9F0FE0193E0EE0FFF1F9A95E1F7E050CD
:1026B000FF4F81819281805B9D4F208130E04217E6
:1026C000530708F49A01A9010E942B35CE010E94FC
:1026D000F133D82E8823D1F001151105B9F083E02C
:1026E000CC0FDD1F8A95E1F7FE01E050FF4F4381DB
:1026F00050E00417150708F4A801C050DF4F6C81A3
:102700007D81605B7D4FC7010E942B358D2DCDB73C
:10271000DEB7E7E00C94A234A3E0B0E0E2E9F3E135
:102720000C94893480918C0290918D02A0918E023C
:10273000B0918F022FB7F8944091640450916504D2
:1027400060916604709167042FBF481B590B6A0B98
:102750007B0B81E0443651056105710508F480E08A
:10276000909189029983443651056105710520F4E1
:1027700020915C02291381E090918A029A83811151
:1027800006C081E020915D02291301C080E0909194
:102790008B029B83811105C080915E0211E0891735
:1027A000C9F010E000E030E020E043E050E0BE017E
:1027B0006F5F7F4F85E00E944413182F882351F0EC
:1027C0000E94160960938C0270938D0280938E0292
:1027D00090938F02812F2396E4E00C94A534A4E01B
:1027E000B0E0E5EFF3E10C94893440917C02509124
:1027F0007D0260917E0270917F022FB7F8948091E4
:10280000640490916504A0916604B09167042FBFA1
:10281000841B950BA60BB70B11E084369105A1051F
:10282000B10518F10E94D60A6E5F7F4F8F4F9F4F00
:1028300069837A838B839C8310E000E030E020E0A2
:1028400044E050E0BE016F5F7F4F82E00E9444137E
:10285000182F882351F00E94160960937C02709310
:102860007D0280937E0290937F02812F2496E4E084
:102870000C94A5348F929F92AF92BF92EF92FF92E9
:102880000F931F93CF937B01942FB901A801F701F8
:1028900080809180A280B380EFB7F89400916404A7
:1028A000109165042091660430916704EFBF081908
:1028B00019092A093B09043611052105310518F4C7
:1028C000C1E0992381F010E000E030E020E00E94B8
:1028D0004413C82F882339F00E941609F70160833A
:1028E0007183828393838C2FCF911F910F91FF90DF
:1028F000EF90BF90AF909F908F900895ABE0B0E0C5
:10290000E4E8F4E10C94893488E0E6E4F4E0DE01E4
:10291000119601900D928A95E1F78091170390919D
:102920001803A091190389879A87AB8741E08B85AB
:10293000811101C040E00BE010E09E012F5F3F4F8E
:1029400060E972E086E00E943A1481111092190346
:102950002B96E4E00C94A5340F931F9341E09091E3
:102960005A028091B902981301C040E001E010E0E2
:1029700029EB32E065E872E083E00E943A14882394
:1029800089F041E090915B0280918402981301C02C
:1029900040E001E010E024E832E060E872E084E02A
:1029A0000E943A141F910F910895A1E0B0E0EBED61
:1029B000F4E10C948034762E4A015901680101E05B
:1029C00010E09E012F5F3F4F50E040E070E060E07C
:1029D0000E944413182F882309F440C0F401408159
:1029E0005181628173812FB7F89480916404909132
:1029F0006504A0916604B09167042FBF841B950BFA
:102A0000A60BB70B84369105A105B10538F4B701C3
:102A1000C6010E94220A9981891701F18701950157
:102A200050E040E070E060E0872D0E944413B82E33
:102A3000B701C6010E94220A11E09981981310E0A3
:102A40001B2139F00E941609F4016083718382838F
:102A50009383812F2196EDE00C949C34A701B6015D
:102A6000C5010E942B35F5CFA6E0B0E0EAE3F5E121
:102A70000C94873480915C04882391F086E0E82EE2
:102A8000F12C0BE612E09E012F5F3F4F44E952E02C
:102A900068E087E00E94D5142696E6E00C94A33403
:102AA00081E0FACFA5E0B0E0E8E5F5E10C948534EB
:102AB0006B0185E0E82EF12C01E512E09E012F5F0D
:102AC0003F4F48E752E061E080E00E94D514882340
:102AD00049F095E0FE013196A3E7B2E001900D9236
:102AE0009A95E1F795E0E3E7F2E0D60101900D92C7
:102AF0009A95E1F72596E8E00C94A134A8E0B0E0BF
:102B0000E4E8F5E10C948B3466EE7EEF90E080E033
:102B10000E94763560E082E090E00E94583581E0C6
:102B20008093840261E083E090E00E94583560E089
:102B300074E184E090E00E94763560E086E090E009
:102B40000E94583560E087E090E00E94583540E0F0
:102B500050E0BA0188E090E00E946A3560E084E2CB
:102B600090E00E94583560E087E190E00E9458357F
:102B700060E08CE090E00E94583560E08DE090E0ED
:102B80000E94583519821A821B821C821D821E8265
:102B90001F82188648E050E068E170E0CE0101969F
:102BA0000E94483540E050E0BA0180E290E00E9487
:102BB0006A3580E00E94DA0F0E94611040E050E028
:102BC000BA018FE090E00E946A3540E050E0BA011F
:102BD00083E190E00E946A352896E2E00C94A734E5
:102BE0001F920F920FB60F9211242F933F934F9382
:102BF0005F936F937F938F939F93AF93BF93EF9365
:102C0000FF938091E10082FF09C08091E20082FF82
:102C100005C08091E1008B7F8093E1008091DA0014
:102C200080FF24C08091D80080FF20C08091DA000E
:102C30008E7F8093DA008091D90080FF9DC080E173
:102C400089BD82E189BD09B400FEFDCF81E080939A
:102C5000750480916804811109C00E94A7070E9431
:102C600048088091E20084608093E2008091E10056
:102C700080FF17C08091E20080FF13C08091E200C6
:102C80008E7F8093E2008091E20080618093E20079
:102C90008091D80080628093D80019BC85E0809331
:102CA00075048091E10084FF2BC08091E20084FFD5
:102CB00027C080E189BD82E189BD89B5982F9170D7
:102CC00080FFFBCF8091D8008F7D8093D8008091CA
:102CD000E1008F7E8093E1008091E2008F7E8093FF
:102CE000E2008091E20081608093E20080917604AE
:102CF000882309F447C084E08093750480917504AB
:102D00008091E10083FF27C08091E20083FF23C010
:102D10008091E100877F8093E10082E080937504D9
:102D2000109276048091E1008E7F8093E100809183
:102D3000E2008E7F8093E2008091E20080618093C8
:102D4000E20042E060E080E00E9416088091F0001E
:102D500088608093F000FF91EF91BF91AF919F91B8
:102D60008F917F916F915F914F913F912F910F9034
:102D70000FBE0F901F90189519BC109275041092F9
:102D8000680474CF8091E30087FD93E0909375040D
:102D9000B5CF78941F921FB61F9211248F939F93E3
:102DA000AF93BF938091640490916504A0916604F1
:102DB000B09167040196A11DB11D809364049093A6
:102DC0006504A0936604B0936704BF91AF919F918F
:102DD0008F911F901FBE1F9018959C014FB7F894BC
:102DE0008091640490916504A0916604B091670499
:102DF0004FBF821B930B08952FB7F8948091640402
:102E000090916504A0916604B09167042FBF089566
:102E10000E94FC169C019091570480915804982BB5
:102E200021F03093540420935304909159048091DD
:102E30005A04982B21F0309352042093510485E5D5
:102E400094E00E94B3090895CF9310928902C6E0DE
:102E5000EAEDF1E0DF018C2F1D928A95E9F790E011
:102E600080E00E948E0990E080E00E946909109243
:102E70008A020E94BD0EE5E5F4E0DF011D92CA95CD
:102E8000E9F710924E0410924F04109250040E94E1
:102E90000817CF910895AAE2B0E0E1E5F7E10C94BC
:102EA0008A3487E794E02091F100DC012D93CD0175
:102EB000B4E08F379B07B9F780917804833009F429
:102EC00072C0B8F4813009F449C0823009F4B3C04B
:102ED0008091E80083FF8BC2809177049091780401
:102EE0009A3008F084C2E92FF0E0E154F94C0C94D8
:102EF000D2348A3009F48EC08B3009F471C0893025
:102F000039F780917704813219F780917B04909191
:102F10007C04009711F00297D9F68091E800877F32
:102F20008093E8008091E80082FF38C09091F30020
:102F30008091F200029731F48091F100813011F01C
:102F4000863021F48091F10080936A048091E8003A
:102F50008B778093E8000E94F707BACF80917704BF
:102F6000813A09F0B5CF8091E800877F8093E8002F
:102F700080917B0490917C04892B61F468E08BE65E
:102F800094E070E00E94A3088091E8008B77809322
:102F9000E8009ECF60E090E080E0F3CF8091750480
:102FA0008111C0CF95CF80917704813A09F090CFFD
:102FB00080917B0490917C04892B09F089CF8091CA
:102FC000E800877F8093E8008091E80080FFFCCFD5
:102FD00080916C018093F1008091E8008E77B9CFE9
:102FE00080917704813209F073CF80917B049091B6
:102FF0007C04892B09F06CCF8091E800877F809357
:10300000E8000E94F7078091790480936C010E9488
:1030100024175ECF80917704813209F059CF8091D7
:10302000E800877F8093E8000E94F70780917A0488
:10303000809369044DCF80917704813A09F048CF9D
:103040008091E800877F8093E8008091E80080FF0E
:10305000FCCF80916904BECF803899F0823809F0A6
:10306000C6C180917B048F70873008F0C0C1809307
:10307000E9008091EB0085FB882780F91092E90038
:1030800006C08091730490917404911182609091B4
:10309000E800977F9093E8008093F1001092F10090
:1030A0008091E8008E779FC1882309F48DC182301A
:1030B00009F09DC180917904811190C180917B04B8
:1030C0008F702FEF280F263008F091C18093E90010
:1030D0002091EB0020FF82C1933031F48091EB000E
:1030E00080628093EB007AC19091EB0090619093A5
:1030F000EB0021E030E001C0220F8A95EAF720932F
:10310000EA001092EA008091EB008860EACF81111A
:103110006EC1109179041F778091E3008078812B34
:103120008093E3008091E800877F8093E8000E940D
:10313000F7078091E80080FFFCCF8091E300806872
:103140008093E30082E0111183E0809375044FC106
:103150008058823008F04BC12091790430917A0474
:103160002C3DE3E03E07A1F583E08A838AE2898370
:103170004FB7F894DE01139620E03EE051E2E32FD2
:10318000F0E050935700E49120FF03C0E295EF7008
:103190003F5FEF708E2F90E0EA30C0F0C7968D93BE
:1031A0009D932F5F243159F74FBF8091E800877FAF
:1031B0008093E8006AE270E0CE0101960E94A308C5
:1031C0008091E8008B778093E80011C1C096E7CF2B
:1031D00080917B0490917C04432F55274330510507
:1031E00009F44AC078F54130510509F47AC08BE5FD
:1031F00090E0EFE6F8E04230510509F0F8C0209188
:10320000E800277F2093E80020917D0430917E0420
:103210008217930708F49C0140E02115310509F05D
:1032200065C0411163C08091E80082FDC9CF8091E3
:103230007504882329F2853019F28091E80083FF14
:10324000F2CFBECF4132510509F43CC042325105A4
:1032500009F0CDC08330910508F0C9C0FC01EE0F24
:10326000FF1FE653FE4F0190F081E02D89539E4FE2
:10327000DC018C9190E01AC0332721303105D1F068
:103280002115310561F02230310509F0B0C0ECEDB7
:10329000F8E0E4918E2F90E0ECEDF8E007C0E8E074
:1032A000F9E0E4918E2F90E0E8E0F9E0009709F46E
:1032B0009EC0A5CFE0EFF8E0E4918E2F90E0E0EF24
:1032C000F8E0F4CF8330910508F091C0880F991F82
:1032D000FC01E053FE4F0190F081E02D89E090E089
:1032E0008ECF82E190E0EAECF8E089CF809175041E
:1032F000882309F465CF853009F462CF8091E80016
:1033000083FD5ECF8091E80082FD8DCF8091E80043
:1033100080FF83CF9091F3008091F2002115310559
:1033200019F08830910550F041E0089709F040E02D
:103330008091E8008E778093E8006FCF44914093AE
:10334000F1003196215031090196E8CF803809F01B
:103350004EC08091E800877F8093E80080917604DA
:103360008093F1009DCE811142C0109179041230FA
:10337000F0F58091E800877F8093E8001093760451
:103380000E94F707112311F084E005C08091E3004B
:1033900087FDFACF81E08093750442E061EC81E023
:1033A0000E94160842E261EC84E00E94160842E2A4
:1033B00061EC82E00E94160842E260EC83E00E9429
:1033C00016088091750413C080917904813079F4D6
:1033D00081E0933009F080E0809374041092E9005A
:1033E0008091E800877F8093E8000E94F707809132
:1033F000E80083FF0AC08091E800877F8093E8009F
:103400008091EB0080628093EB00AA96E3E00C943D
:10341000A6341F920F920FB60F9211242F933F9351
:103420004F935F936F937F938F939F93AF93BF93CC
:10343000CF93DF93EF93FF93D091E900DF708091FA
:10344000EC00C82FC17080FDC0E81092E9008091A7
:10345000F000877F8093F00078940E944B171092C1
:10346000E9008091F00088608093F000CD2BCF7050
:10347000C093E900FF91EF91DF91CF91BF91AF91A0
:103480009F918F917F916F915F914F913F912F917C
:103490000F900FBE0F901F9018950E9424172FEFCA
:1034A00084E39CE0215080409040E1F700C00000A0
:1034B00088E19AE00FB6F894A895809360000FBE5B
:1034C00090936000FFCF4091570490915904209150
:1034D0005A04662309F47EC0942B922B2091580441
:1034E000922B31F098E090934E0491E090934F042A
:1034F0008D3C41F40E94F4098195809358040E9408
:10350000081708958E3C19F40E94F409F6CF8F3CF9
:1035100031F40E94F409819580935704F0CF803DE7
:1035200019F40E94F409F8CF893D29F40E94D209C8
:1035300080935904E4CF8A3D21F40E94D2098195F9
:10354000F7CF8B3D31F40E94D209819580935A04C4
:10355000D6CF8C3D19F40E94D209F8CF9FE2980F84
:10356000983020F5282F215D330BA90121E030E0B0
:1035700001C0220F4A95EAF790915604922B90933E
:103580005604815D21E030E0A90102C0440F551FBF
:103590008A95E2F7CA0120911203662309F48FC0CD
:1035A000822B809312030E94D80D08958D3D31F433
:1035B00080915004816080935004A1CF8E3D21F40E
:1035C000809150048260F7CF8F3D09F580915004BF
:1035D0008460F1CF8D3C59F49091580497FF0DC051
:1035E0001092580441110BC010924E0408C08E3C3A
:1035F000B1F49091580419169CF34423B1F09091C2
:10360000590420915A04922B11F410924F04482F20
:10361000415D550B4830510508F4B3CF70CF8F3C56
:1036200049F447FFEACF1092570490915804911142
:10363000E6CFDACF803D19F41416ACF3DECF893D26
:1036400029F41916D4F610925904D7CF8A3D19F4EB
:1036500097FFD3CFF8CF8B3D29F427FFCECF109221
:103660005A04CBCF8C3D19F41216CCF3C6CF9FE28F
:10367000980F983088F4282F215D330BF90121E051
:1036800030E001C0220FEA95EAF7209590915604A8
:10369000292320935604B1CF909150049E7F8D3DF5
:1036A00059F0909150049D7F8E3D31F08F3D09F08F
:1036B000A4CF909150049B7F909350049ECF80950F
:1036C00082236FCF8823D1F19CEF980F913A78F441
:1036D000EAEDF1E09191891303C0DF0111971C928B
:1036E00091E0E03EF907B1F70E94BD0E089590E227
:1036F000980F983050F4877091E001C0990F8A9527
:10370000EAF7892F0E94FF0CEFCF9BE5980F9330CB
:1037100028F490E080E00E948E09089598E5980FC3
:103720009B3128F490E080E00E946909089593E3BA
:10373000980F933118F460E00E94631A0895CF93B4
:10374000C82F8823B1F08CEF8C0F813A00F5EAED99
:10375000F1E080EE91E0DF012D91C21761F08A1750
:103760009B07D1F76C2F88ED91E00E944F090E94D2
:10377000BD0ECF9108952191C21303C0DF011197AF
:103780001C928E179F07B9F70E94BD0EEBCF80E207
:103790008C0F883068F4C77021E030E001C0220F40
:1037A000CA95EAF780918902822B80938902DFCF44
:1037B000EBE5EC0FE33040F4F0E0E359FE4F80819D
:1037C00090E00E948E09D5CFE8E5EC0FEB3150F484
:1037D000F0E0EE0FFF1FE059FE4F808191810E94C3
:1037E0006909C7CF83E38C0F833118F661E08C2F12
:1037F0000E94631ABECF1F93CF93DF93182FEB0164
:103800000E949F1B209739F4812F0E94621BDF9139
:10381000CF911F9108958FE99FE00197F1F700C0C4
:1038200000002197EFCF70E060E0893311F460E58C
:1038300070E00E94FB1B08950F931F93CF93DF93BB
:10384000C62FD42F022FFC0185818823A9F0609315
:10385000BB040E94FC169093BA048093B904C7700D
:1038600081E001C0880FCA95EAF70E94140FDF912A
:10387000CF911F910F9108958091BB04681332C0BE
:103880008091B9049091BA040E94ED16883C91058C
:1038900048F510E21D0FCD17B9F080E28C0F88308B
:1038A00040F4C77081E001C0880FCA95EAF70E9412
:1038B0000D0F183048F481E09D2F977001C0880FDC
:1038C0009A95EAF70E94140F802F0E94131C18305B
:1038D00070F6D77081E001C0880FDA95EAF70E9490
:1038E0000D0FC5CFC77081E001C0880FCA95EAF7F8
:1038F000F6CFA8E0B0E0EFE7FCE10C947D348C015A
:10390000DC0114968C911497882309F4B8C021E047
:103910004C9111965C91119712966C911297139697
:103920007C91139715969C910E9426117C01F801B9
:103930008581882309F440C1C701975780389105D4
:1039400008F088C5FFE0FE1508F489C08FEF93E00A
:103950000E943435811183C069EAA62E62E0B62E3A
:10396000E11047C0FE01339686E0DF011D928A9583
:10397000E9F75AE0452E7501BFEFEB1AFB0AC501C6
:103980000E94343589831A82882309F468C0813003
:1039900009F079C06501E2E0CE0ED11CC7010E949A
:1039A00034358A83882309F45AC09FEF980F9330E7
:1039B00070F5F3E0AF0EB11CC6010E9434358B8365
:1039C000882309F44CC01C82DE0111967D01F701A9
:1039D0002081222381F2213009F097C091818281D8
:1039E000913009F052C0F2E0EF0EF11C0E94131C5E
:1039F00053C0A11424E0B20691F1C5010E943435F0
:103A0000811101C0EA943FEFA31AB30AA9CF56016E
:103A10008430D1F642E0E42EF12C56012FEFA21AA9
:103A2000B20AC6010E943435E1E0F0E0EC0FFD1F60
:103A3000EE0DFF1D8083882391F08C3741F4E2E086
:103A4000F0E0EC0FFD1FEE0DFF1D1082BDCF3FEF2C
:103A5000E31AF30A650187E0E816F104F1F68091B4
:103A60003702877061F0D80115968C91882339F060
:103A70008091AA0282FF03C082E00E94AA0D2896CC
:103A8000E0E10C94993457019FCF923049F422E041
:103A9000E20EF11C0E949F1B9FEFE91AF90A97CFD3
:103AA000933031F432E0E30EF11C0E94621BF4CF3C
:103AB000943021F08FEFE81AF80AEECF92E0E90E89
:103AC000F11C30E020E0B7016F5F7F4FD701119606
:103AD0004C918053990B8A30910560F02115310586
:103AE000D9F2EFE9FFE03197F1F700C00000215073
:103AF0003109F4CF429EF001439EF00D11249C0148
:103B00002E0F3F1F842F7B01DECFE22FF0E0E35426
:103B1000FE4F5490822F86958695869590E0FC0105
:103B2000E355FE4F64902770712C022E02C07594ED
:103B300067940A94E2F7F1E06F227724FC01E356E0
:103B4000FE4F8490912C022E02C0959487940A9483
:103B5000E2F731E083229924FC01E357FE4FC49041
:103B6000D12C02C0D594C7942A95E2F781E0C822EF
:103B7000DD246114710419F081EE0E949F1B8114F1
:103B8000910419F086EE0E949F1B70E060E0852D85
:103B90000E94FB1B8114910419F086EE0E94621BA7
:103BA0006114710419F081EE0E94621BC114D104EA
:103BB00009F472CF8CE21ACFF701E851FC47E730E5
:103BC000F10508F033C4E753F94C0C94D23426E2E3
:103BD00041EE61EEC8010E941C1C41CF27E245EE78
:103BE00065EEF8CF26E241EE60EEF4CF27E245EE37
:103BF00064EEF0CF26E241EE62EEECCF27E245EE36
:103C000066EEE8CF28E241E0EBCF8091A902816027
:103C10008093A90295C08091AA0288608093AA022D
:103C20008FC08091A9028260F3CF8091A902846045
:103C3000EFCF8091A9028860EBCF8091AA028160CA
:103C4000EDCF8091AA028260E9CF8091A9028061C4
:103C5000DFCF8091A9028062DBCF8091A9028064CE
:103C6000D7CF0E9424178091A9028068D1CF80917C
:103C7000A9028C60CDCF8091AA028360CFCF8091C2
:103C8000A9028E7FC5CF8091AA02877FC7CF80917E
:103C9000A9028D7FBDCF8091A9028B7FB9CF809182
:103CA000A902877FB5CF8091AA028E7FB7CF80917E
:103CB000AA028D7FB3CF8091A9028F7EA9CF809178
:103CC000A9028F7DA5CF8091A9028F7BA1CF0E94F1
:103CD00024178091A9028F779BCF8091A902837FBF
:103CE00097CF8091AA028C7F99CF8091A90282FB05
:103CF000992790F921E0922790FB82F990FB83F9B4
:103D000087CF8091AA02982F909591708E7F892BF2
:103D100090FB81F983CF9091A902892F8F7B96FF29
:103D2000806476CF0E9424179091A902892F97FB77
:103D300087F980586DCF61E08EE090E00E945835A1
:103D40006091A9027091AA0284E090E00E94763509
:103D50000E94241784CE60E0EFCF9091A902892FB2
:103D60008F7E94FF806154CF9091A902892F8E7F1E
:103D700090FF81604DCF9091AA02892F877F93FF9A
:103D800088604CCF8091100281110FC089E2EAED6A
:103D9000F1E020EE31E09191891303C0DF0111972A
:103DA0001C922E173F07B9F73EC385E3F0CFA7E774
:103DB000EA16ACE7FA0609F006C381E00E94C10DDD
:103DC00043E062E081E00E947D0D49CE809146048F
:103DD00080FF1CC0282F2E7F20934604309147047B
:103DE000409148045091490460914A0470914B04F9
:103DF00080914C0490914D040E94581180911903B8
:103E00008160809319030E94550A29CE81608093B6
:103E1000460461E0869586950E94DD1220CE41E140
:103E200053E16CE173E10E944F0A19CE4CE153E17A
:103E300061E173E1F8CF45E952E16FE972E1F3CF57
:103E40004FE952E165E972E1EECF4BE752E168E8F4
:103E500072E1E9CF48E852E16BE772E1E4CF41E675
:103E600052E16EE672E1DFCF4EE652E161E672E1C9
:103E7000DACF49EA52E163EC72E1D5CF43EC52E18B
:103E800069EA72E1D0CF61E081E0C6CFB7E7EB1617
:103E9000BCE7FB0609F45AC0E8E7EE16ECE7FE06BD
:103EA00009F45AC0F8018581E080F180882309F483
:103EB00087C0C7010E94C710D82E682FC7010E9473
:103EC000440DB7018D2D0E94B9100E94E10B7C01B9
:103ED000882ED8011596AC90159716969C909294C2
:103EE0003FE0932280913702877009F1CA2CAA2003
:103EF000F9F08F2D807F803469F080E28E0D88305C
:103F0000B0F08F2D807E803229F4B1E0BE1578F4B8
:103F1000992069F08091AA0282FF09C082E00E9484
:103F2000AA0D809137028770CC24C3948111C12CD3
:103F3000BF2CB2942FE0B222EBE0EB1508F4A8C03E
:103F4000EB2DF0E0E053F94C0C94D23481E00E9468
:103F50009D0D36CF82E032CF82E0F9CF9BE5E916A6
:103F60009CE7F90659F1ACE5EA16ACE7FA06E1F090
:103F7000BAE5EB16BCE7FB0609F094CF81E01BC065
:103F80000E942417EFEFF4E32CE0E150F0402040D2
:103F9000E1F700C000000E9405096FEF7FEF90E09D
:103FA00080E00E94763528C28091AA0282FB882791
:103FB00080F991E089270E94211374CF80E0FBCF24
:103FC000C7010E94100DD82E7CCFFF2DFF70DF2E71
:103FD0008F2D807F19F0D29490EFD922AA20B9F0CA
:103FE000DD2069F080E28E0D883010F0811009C06C
:103FF00080918902D82AD09289020E94BD0E8E2D0E
:1040000045C080918A02D82AD0928A02F6CF8E2D9E
:104010000E94621BDD20E1F180E28E0D883010F0FD
:10402000811004C08D2D0E94FF0C06C0D094809199
:104030008A02D822D0928A020E94BD0E29C02F2D5A
:104040002F70D22E8F2D807F803219F0D29480EF86
:10405000D822882059F031E0831609F481C0AA20C3
:1040600009F48DC0992009F44FC0C9CF8091AA02EC
:1040700082FD46C0AA20F1F1DD2039F0809189024D
:10408000D82AD09289020E94BD0E80E00E949F1B18
:10409000AB2DA850BB0B149710F40E94C109CC2083
:1040A000A9F08091370280FD11C0F8011582869534
:1040B000869586950E94C10DC8010E94791C809149
:1040C00037028695869586950E949D0D20E0D80141
:1040D0004C9111965C91119712966C9112971396D0
:1040E0007C91139714968C91149715969C910E942D
:1040F0002611C5CC80E00E94621BDD2049F292CFE0
:10410000AA20A1F0911004C08D2D0E94140FC0CFE1
:1041100081E09812BDCF80918B029D2D9823D916F6
:1041200009F4B6CFD82AD0928B02B2CF9110B0CF7B
:104130008D2D0E940D0F90918B028D2D892329F0DA
:104140008D2D8095892380938B02809111029D2D66
:10415000982309F49DCFD094D822D092110298CF01
:10416000AA2029F095E0991508F492CFCDCFA4E0CC
:10417000A91508F48DCF8D2D0E940D0F89CF9920A0
:10418000D1F3B9E38B1218C1EFEFF7EE23E0E15062
:10419000F0402040E1F700C000000EC18F2D869551
:1041A0008695837061F0813009F072CFC7019370FA
:1041B000A11002C080E090E00E94690969CFC701A8
:1041C0009370A11002C080E090E00E948E0960CF41
:1041D0006A2D8E2D0E94631A5BCF8F2D837091F50F
:1041E000A11056CF4E2D429546954770440F440F6F
:1041F0008E2D8F70042E01C0880F0A94EAF72E2DA1
:104200002071E4FE07C02FE030E001C0220F4A9584
:10421000EAF720953F2D369536953370323069F0A8
:1042200050F440918402313029F0822B84230E9483
:10423000CD0D2ECF842B822BFACF282B8091840298
:104240008227F5CF8695AA2011F08F2D81708823C3
:1042500009F41ECF4E2D429546954770440F440FEA
:104260008E2D8F70042E01C0880F0A94EAF72E2D30
:104270002071E4FE07C02FE030E001C0220F4A9514
:10428000EAF720953F2D369536953370323069F038
:1042900050F44091B902313029F0822B84230E94DE
:1042A0007A0DF6CE842B822BFACF282B8091B9027F
:1042B0008227F5CF3F2D3F70F32EAA2029F0832FC0
:1042C0000E94C10D8E2D21CF8E2D0E940D0F8F2D9E
:1042D0000E949D0DDDCE8E2D92EF8916B1F19815BD
:1042E00070F0A0EF8A16D1F0B1EF8B1691F0AA20F2
:1042F00009F45DC0911083CE8F2D8F712AC0E3EF3A
:104300008E1651F1F4EF8F12F2CF8091AA0282FD46
:104310002FC08F2D8F71AA20D9F21BC0AA2081F047
:1043200024E0291508F4B4CE2F2D2F7181E090E000
:1043300001C0880F2A95EAF79091B9028927AFCF7B
:1043400035E0391508F4A4CEEFCF8F2D8F71A11071
:10435000BFCF0E94C10D9CCE80E0AA2009F49FCF60
:104360009F2D9F7181E001C0880F9A95EAF797CF42
:10437000AA2091F08F2D8F71F82E0E94C10D80918F
:10438000AA0282FF07C0A8E0FA9EC0011124836040
:10439000809337028F2DDDCF81E00E94AA0DB1E01E
:1043A000B91508F075CE82E00E94AA0D71CE992051
:1043B00039F0893309F4E8CE8E2D0E94621B68CE55
:1043C0008F2D8F7185CFB8E7EB16BCE7FB0609F49C
:1043D000C1CDF3E0EF16FCE7FF0609F4DECD08F0EF
:1043E000BDCDE1143CE7F30609F4CACD81E0E8163F
:1043F0008CE7F80609F056CD0E944D1AE6E1EE165C
:10440000ECE7FE0609F0D3CC809189028A7A91E02C
:1044100009F490E09093100269E2811165E388ED60
:1044200091E00E944F090E94BD0E19CBF6E1EF16F4
:10443000FCE7FF0609F4A6CC809189028272F7019D
:10444000E052F847E531F10508F020CDE452F94C8F
:104450000C94D234F701E851FC47E730F10508F439
:10446000B2CB1092BB04C7019057839738F684E013
:1044700090E00E9442359093AA028093A902F7012E
:10448000E150F047E232F10508F0BFCBEF50F94CB4
:104490000C94D234CF93DF9380913602807F09F061
:1044A0004DC080913502882309F448C0E091B804DA
:1044B00050917F04C0913102D0913002609132025C
:1044C0007091330247E05E17C9F18E2F90E0E49FB0
:1044D000F0011124E058FB4F2481222391F1489FE1
:1044E000F001499FF00D1124DF01A058BB4F119638
:1044F0002C9111972C1325C02C912D1322C01596A9
:104500002C91159721111DC012962D913C91261BBF
:10451000370B283C3105A8F4809136028F708061FA
:1045200080933602EA57FB4F80818F7080618083D1
:1045300080E392E00E94791C0E94060DDF91CF91EA
:104540000895FC013196E770BECFA4E1B0E0EBEA3C
:10455000F2E20C9481348C0186E0F801DE011F96B2
:1045600001900D928A95E1F7F8018481E58090E34E
:10457000A92E92E0B92E90913402911128C088237F
:1045800019F1EE20F1F0C8010E940311F82E8823E2
:10459000C1F087E0F801D50101900D928A95E1F70D
:1045A00080913402813031F4809130029091310257
:1045B0000E94F6100E944A228F2D6496ECE00C9423
:1045C0009D34C8010E94791CFF24F394F5CFD0805C
:1045D000C18082809380F090350220913202309128
:1045E0003302A401421B530BFF2009F4D9C0483CFD
:1045F000510508F092C08823F9F290913102809120
:104600003602282F207F09F056C0C91214C090919D
:104610003002D91210C0E11048C08F7080618093C1
:10462000360280E392E00E94791C80913602F80104
:104630008683F12CC1CFE11038C06C2D8D2D0E94E6
:1046400088076C2D8D2D0E948807E82E8111F1CFEF
:10465000DF86C88A8F8598890E94F610292F2295B7
:104660002F70243058F49F70223088F0992399F0ED
:10467000F8019681907F79F4FE2C9ECF2A5F2F70EF
:10468000223068F0C8010E94791CEF2CF5CF9923E5
:1046900011F0882389F3805E883070F3F3CF803F78
:1046A00058F3815F833070F7E7CF809136028160E5
:1046B00080933602BECFC91207C090913002D91242
:1046C00003C0EE2009F48DC0C8010E9403118823A5
:1046D00009F477CFEE2009F474CF8091360280324E
:1046E00088F02091300230913102398728879B86EB
:1046F0008A86909134029C871D868E87CE0108960B
:104700000E94791C87E0F801A0E3B2E001900D92CD
:104710008A95E1F70E944A2257CF90913602292FBD
:10472000207F51F480E392E00E94791C87E0F5013C
:1047300011928A95E9F77DCF882309F43DCF8091C6
:1047400031028C1110C080913002D8120CC0E110DF
:104750000AC09683C8010E94791C87E0F501119276
:104760008A95E9F729CFC8010E940311882309F42B
:1047700028CFEE2009F425CF80913602803210F246
:1047800020913002309131023A8329839C828B82BE
:10479000909134029D831E828F83CE010196B0CF0B
:1047A000483C5105D0F6882309F40ECFFE2CEE20AC
:1047B00009F407CF809131028C1120C08091300222
:1047C000D8121CC08091360280FD0FC0982F907FB8
:1047D00061F08683903F31F0982F907F905F8F70CB
:1047E000892B8683C8010E94791C87E0F801A0E329
:1047F000B2E001900D928A95E1F7DECEC8010E94E9
:10480000031181117FCF809136028160809336023F
:10481000C8010E94791CD0CEABE1B0E0E2E1F4E245
:104820000C9489344E8B5F8B688F798F8A8F9B8F26
:10483000192F911110928A021D8A86E0FE01769648
:10484000DE011F9601900D928A95E1F70A8D0023F3
:1048500041F021E04F85588969897A89C8010E9411
:1048600026110B8B1C8B87E0FE013F96DE0118960C
:1048700001900D928A95E1F7CE0108960E94A5223B
:1048800081110CC087E0FE013896DE01119601907F
:104890000D928A95E1F78C8581110BC017E080910C
:1048A000B80490917F04891331C06B96E4E00C94B6
:1048B000A53420917F0430E0C901019687709927C3
:1048C0004091B8044817190699F097E0929FD001DB
:1048D000939FB00D1124A058BB4FFE01319601905B
:1048E0000D929A95E1F780937F040E94060DD6CF32
:1048F0000E94241710927F041092B80487E0E0E32E
:10490000F2E0DF011D928A95E9F7C8CF819FC001CF
:10491000112480589B4F0E94A522882331F2809158
:10492000B80490E00196877099278093B804B7CFB8
:104930004F925F927F928F929F92AF92BF92CF924F
:10494000DF92EF92FF920F931F93CF93DF93CDB738
:10495000DEB76B970FB6F894DEBF0FBECDBF8E01EA
:10496000045F1F4F8AE0D8011D928A95E9F798EA03
:10497000E92E91E0F92E20EBC22E21E0D22E7724F1
:104980007394AA24A394B12C45EB842E41E0942E79
:10499000F70181917F018F3F09F447C0F894E82F18
:1049A000E295EF70F0E021A18F70A50102C0440FE5
:1049B000551F8A95E2F7CA01922F982B91A392A1D5
:1049C0008095892382A3789400C080EB482E81E0F3
:1049D000582ED801672D6095F20151912F014D910C
:1049E0009D01215031095F3F09F4A4C0852F8295B4
:1049F0008F7090E0FC0180A190E05F7002C09595FF
:104A000087955A95E2F780FD95C04729F9014083C3
:104A10008414950409F7F701319780818F3F11F0D5
:104A20000E94BF0AF0EAFA95F1F7770CCE14DF0482
:104A300009F0AECF4AE050E0B8018DE992E00E9463
:104A40001E35009741F02AE0F801ADE9B2E001908F
:104A50000D922A95E1F7E090A802F12C97012F5FC3
:104A60003C4F7901892B09F467C081E080934402AF
:104A70000E94FC169093430280934202D12CC09076
:104A80005B048E010F5F1F4F85E0CC2009F4C1C08D
:104A9000D8011D928A95E9F7809198028A3008F032
:104AA0006FC042E555E1B801C7010E94A70F8823F6
:104AB00009F49EC04FEE53E1B801C7010E94A70F51
:104AC000882309F495C04CEA54E1B801C7010E945B
:104AD000A70F882309F48CC04CE853E1B801C70143
:104AE0000E94A70F882309F483C04EE754E1B80160
:104AF000C7010E94A70F882309F47AC044E355E157
:104B0000B801C7010E94A70F882309F471C0109251
:104B100098028091A70290E045E050E0B8018F5FD5
:104B20009C4F0E941E3521E020934F02892BE9F50E
:104B3000C12C46C046236ACFD0904402DD2009F440
:104B40009DCF80914202909143020E94ED160597FD
:104B500008F494CF45E050E06DE972E0C7010E948F
:104B60001E35892B59F085E0EDE9F2E0D70101907F
:104B70000D928A95E1F71092440281CFD12CFBCFA0
:104B800080914502909146020E94ED16843F91402B
:104B900008F087CF80914F02882351F285E0F80119
:104BA00011928A95E9F710924F02A091A702B0E006
:104BB000AF5FBC4F85E0F80101900D928A95E1F757
:104BC0008C2D8D296B960FB6F894DEBF0FBECDBF2E
:104BD000DF91CF911F910F91FF90EF90DF90CF90D9
:104BE000BF90AF909F908F907F905F904F9008956F
:104BF000809198028F3F31F08F5F809398028A30C6
:104C000008F487CF0E94FC169093460280934502D9
:104C1000C1CFF701A1E5B2E001900D928A95E1F7CD
:104C200065E070E081E592E00E94220A80935002E4
:104C30008090560290905702A0905802B09059026E
:104C400080914B0290914C02A0914D02B0914E0286
:104C500088169906AA06BB06B1F080924B02909284
:104C60004C02A0924D02B0924E020E941609861A82
:104C7000970AA80AB90A8092990290929A02A09281
:104C80009B02B0929C0280915A028093B90280915B
:104C90005B028093840290915D0280915E0220917C
:104CA0005C022093890290938A029091AA0292FF5B
:104CB00005C090918B02891380938B028BE0EFE506
:104CC000F2E0D80101900D928A95E1F780915F02A0
:104CD00086958695E0906002B0906102A090620295
:104CE000F090690210926902FF20A9F0F0FE0BC05B
:104CF000998190FF64C0909146049160909346041E
:104D000060E00E94DD12F1FE06C020E04A2D6B2D0E
:104D10008E2D0E947E1180915C04811151CF4091B3
:104D20004702509148026091490270914A022FB7A0
:104D3000F8948091640490916504A0916604B09108
:104D400067042FBF481759076A077B0709F438CF54
:104D50000E941609609347027093480280934902AB
:104D600090934A0289E0EAE6F2E0D80101900D92C0
:104D70008A95E1F7FE01769686E0DF011D928A951D
:104D8000E9F74E895F89688D798D8A8D9B8D0E94A8
:104D90009C0A2A833B834C835D836E837F8366E01A
:104DA00070E0CE0102960E94220A898389E0F80110
:104DB000AAE6B2E001900D928A95E1F7B9CE0E9481
:104DC000790AA1CFA6E0B0E0E8EEF6E20C948934CF
:104DD0000E94FC168C018091400290914102801744
:104DE000910781F019821A820E94FC16682F49816E
:104DF0005A81792F80E090E00E940C2410934102A8
:104E0000009340022696E4E00C94A534A2E1B0E0C1
:104E1000ECE0F7E20C948634D0905B04DD2009F4DA
:104E200012C180910E0290910F020E94ED1602971E
:104E300008F409C10E94FC1690930F0280930E02A1
:104E400001E010E02CE230E042EE51E06DE070E075
:104E500088EE0E94153221E030E043E551E06EEE2D
:104E60007EEE88EE0E94BE310091E60186E0E1E12F
:104E7000F3E0DE01179601900D928A95E1F786E046
:104E8000FE013796DE01119601900D928A95E1F7A9
:104E900086E0FE013196DE011D9601900D928A9505
:104EA000E1F71091E2011130D9F581ED0E94131C58
:104EB000D090E101DD2019F01092E101D12C102BEE
:104EC00009F4DAC00091E7011091E801E090E901EE
:104ED000F090EA018091E001811103C081E08093AC
:104EE000E0018091E201823039F48091E101811189
:104EF00003C081E08093E101102701271027FE24E1
:104F0000EF24FE248091E3018230A1F08430C1F1CE
:104F100008388FEF18070CF04AC010E000E04BC0D3
:104F20008091E30110E0813051F682ED0E94131C64
:104F300012E0C4CFF7FE0EC08AED0E94131C2FEFC3
:104F400080E792E0215080409040E1F700C00000EF
:104F5000D12CDECF89ED0E94131C2FEF80E792E069
:104F6000215080409040E1F700C0000008382FEF4A
:104F700012070CF47EC0D12C0937110574F620C03D
:104F800063E07FE0101611060CF062C08DE291E044
:104F90000E94D00D8DE20E949F1B8DE20E94621B39
:104FA00068EF7EE08DE291E00E94D00DD12C0937B0
:104FB00011050CF0B2CF98E8E9169FEFF90624F03E
:104FC00029E7E216F10414F0F12CE12CDD2009F4BC
:104FD00050C066277727601B710B072E000C880BCB
:104FE000990B0E94C43520E030E040E05FE30E946E
:104FF00028360E948C356F87662777276E197F09C0
:10500000072E000C880B990B0E94C43520E030E07D
:1050100040E05FE30E9428360E948C35688B86E072
:10502000FE013D96DE01119601900D928A95E1F701
:1050300086E0FE013196A1E1B3E001900D928A95E0
:10504000E1F70E94D80D81E06296E7E00C94A2346B
:105050008EE293E00E94D00D8EE20E949F1B8EE2B2
:105060000E94621B68EF7EE08EE293E00E94D00D0A
:105070006FCF1F86188AD3CF1092E001E4CF1F9222
:105080001FB61F9211248F939F93AF93BF9380916C
:105090006304811113C08091640490916504A09110
:1050A0006604B09167044196A11DB11D809364040C
:1050B00090936504A0936604B0936704BF91AF9189
:1050C0009F918F911F901FBE1F901895CDB7DEB78F
:1050D000A8970FB6F894DEBF0FBECDBF85B7806826
:1050E00085BF85B7806885BF84B7877F84BF0FB6CB
:1050F000F894A89580916000886180936000109278
:1051000060000FBE80E890E00FB6F89480936100D5
:10511000909361000FBE8DEB9AE09093D70180933E
:10512000D6010E94A7070E9448088091E20084608F
:105130008093E2007894809175048823A1F0109107
:10514000E9001F709091EC00892F817090FD80E83C
:10515000182B1092E9008091E80083FD0E944B1704
:105160001F701093E90082E084BD93E095BD9AEF33
:1051700097BD80936E001092990210929A0210923D
:105180009B0210929C020E947110811102C00E9429
:10519000611088EC90E01091E300111F1127111F9E
:1051A00061F4AFE3BCE91197F1F700C0000001978B
:1051B00091F70E94A7071092750410935B040E9458
:1051C0003813811102C00E947E158EE090E00E948B
:1051D000343591E0811101C090E090935C0490938C
:1051E0005001882309F476C01092670182E380930E
:1051F000680180915B0481110E9405338091500108
:105200008091500195E0811190E09093A80285E093
:10521000891B8093A70208EA11E0F80181918F01B0
:105220008F3F11F00E94BF0AF1E0003B1F07A9F772
:1052300000EB11E085EBE82E81E0F82ED8018D918E
:105240008D018F3F11F00E94BF0AE016F106B1F701
:105250008AE0E1E0F3E0DF01282F1D922A95E9F7CB
:10526000EDE9F2E0DF011D928A95E9F70E9438131B
:10527000811102C00E947E1582E090E00E943435C8
:105280008093AE0284E090E00E9442359093AA029F
:105290008093A9020E949824BFEFE6E7F1E0B150A5
:1052A000E040F040E1F700C000000E9498248091A7
:1052B0005C04E5E08111E0E0F0E0EF5FFC4F80810D
:1052C00080FF0CC06FEF7FEF90E080E00E947635AA
:1052D0000E94050982E38093670189CF83E090E013
:1052E0000E9434350E94CD0D1092FB0280E880931D
:1052F000BC040E9470306BE070E084E592E00E9494
:105300004B11882379F18091FB0265E070E081FD0B
:1053100081C18FE492E00E944B11882319F16DE066
:1053200070E08DE392E00E944B118823D9F0E5EC08
:10533000F4E080E094E0DF019C011D9221503040B8
:10534000E1F7F093C608E093C5088FEF9FEF9093C5
:10535000C4048093C30481E08093FF028093BA0267
:105360001092FC028091AB02811182C088E090E033
:105370000E943C354B015C0184E290E00E94343590
:10538000282F30E040E050E060E070E080E090E006
:1053900000E20E94DF34282939294A295B29209319
:1053A0004604309347044093480450934904609363
:1053B0004A0470934B0480934C0490934D043091B5
:1053C00019033360309319032C7F09F043C025E0A3
:1053D00020934604109247042FEF2093480420E8BE
:1053E0002093490410924A0425E030E04FEF50E842
:1053F00060E00E94581188E090E00E943C356B010B
:105400007C0184E290E00E943435282F30E040E0B7
:1054100050E060E070E080E090E00E94DF34B22F66
:10542000A32FF42FE52F5B0197018601BC29A12B47
:10543000FE29E32BB0934604A0934704F09348045D
:10544000E093490460934A04B0924B0480934C0467
:1054500090934D040E94860A8091460480FF05C007
:1054600060E0869586950E94DD1281E08093AB0214
:1054700080915B04882309F4D0C004E010E022E0AE
:1054800030E044E551E06AE775E088EE0E94BE3105
:1054900007E010E021E030E043E551E06EEE7EEE03
:1054A00088EE0E94BE3104E010E022E030E041E5E9
:1054B00051E06EE775E088EE0E94BE3107E010E033
:1054C00021E030E043E551E06EEE7EEE88EE0E9492
:1054D000BE3104E010E022E030E041E551E06CE74D
:1054E00075E088EE0E94BE3107E010E021E030E078
:1054F00043E551E06EEE7EEE88EE0E94BE3104E0A0
:1055000010E022E030E041E551E060E875E088EE2F
:105510000E94BE3107E010E021E030E043E551E0B9
:105520006EEE7EEE88EE0E94BE3104E010E022E0D6
:1055300030E041E551E062E875E088EE0E94BE315E
:1055400007E010E021E030E043E551E06EEE7EEE52
:1055500088EE0E94BE3186E591E0909360048093CE
:105560005F0410E4E12EFF24F39466246394809199
:10557000750400E112E1853009F4AEC00E94982460
:105580000FEA12E0B1E0CB2EB3E0DB2E29EB32E0E4
:10559000D601F80191918D912E173F0709F4AFC004
:1055A0009817C1F350905B04B12CD601AD906D01FA
:1055B000F80171908F017A1431F17A24912C8824AA
:1055C0008394872D8821B9F05520A9F099A2BAA219
:1055D0000E94FC169CA38BA3F1E0FDA391E08A2D11
:1055E000882109F490E09EA349A15AA16BA17CA156
:1055F0008DA10E940C249394880C28E09212E1CF94
:10560000F8013197A082B3943AE0B312CECF0E9452
:10561000D60A79C08AE492E07ECE0E940833809157
:105620005B04882309F497CF28CF809175048430D8
:1056300009F443C08091AD02811109C06092AD02AE
:105640008091460481708093AC020E94790A809117
:10565000FF02882369F08091BA02882349F062E052
:1056600070E08FE592E00E944B1181111092BA0216
:105670000E9406271092630488E190E00FB6F89428
:10568000A895809360000FBEE092600083B7817F91
:10569000846083BF83B7816083BF7894889583B724
:1056A0008E7F83BF0FB6F894A895809160008861C3
:1056B00080936000109260000FBE80917404882374
:1056C00059F00E949824E1E0F3E0819181118DC4AA
:1056D00093E0EB30F907C9F780917504853009F440
:1056E000A4CF0E9424170E94C1091092AD0280919C
:1056F000AC02882309F442CF0E9406133FCF9813CF
:1057000051CF0E94E2260E94062781110E94D60AEC
:105710008091FF028111BCC086E0E5E5F4E0DE0186
:10572000119601900D928A95E1F71092570410920C
:1057300058041092590410925A048B819C81892B31
:1057400009F063C28D819E81892B09F447C0809145
:105750005104909152040E94ED169C0190914F04C7
:10576000992309F461C423333105C0F19F3F19F037
:105770009F5F90934F041D81112359F00E94D2091D
:105780009FEF11160CF491E0899F802D11248093D6
:1057900059041E81112359F00E94D2099FEF11165E
:1057A0000CF491E0899F802D112480935A048091FC
:1057B0005904882399F010915A04112379F00E941A
:1057C000140A882309F470C280935904812F0E941F
:1057D000140A882309F46BC280935A04BE016F5FD8
:1057E0007F4F85E594E00E94220981110CC08091D1
:1057F000570490915804892B90915904892B9091CA
:105800005A04892B11F00E94081786E0FE01319698
:10581000A5E5B4E001900D928A95E1F70E94C109D7
:1058200090910003891721F0809300030E941609CC
:1058300080917504843009F09ACE83E08093E9006A
:105840008091E80082FF93CE8091E80090E085FF90
:105850000CC00E94C60730E2C32ED12C8E010F5F10
:105860001F4F882309F430C291E08091E8008B77C4
:105870008093E800992309F47ACE8981EFEFE80F4D
:10588000E33108F03AC2F0E0ED5EF84C0C94D2340B
:105890008091FD029091FE020E94ED16C29708F4DD
:1058A0006AC00E94FC169093FE028093FD0260E0A5
:1058B00080E00E94380A61E080E00E94380A81ECB2
:1058C00092E00E94450762E080E00E94380A81EA87
:1058D00092E00E94450763E080E00E94380A81E878
:1058E00092E00E94450764E080E00E94380A81E669
:1058F00092E00E94450765E080E00E94380A87EE4A
:1059000092E00E94AF0E66E080E00E94380A81EECD
:1059100092E00E94AF0E62E088E00E94380A209177
:10592000B902222309F483C0822F90E0AC0155957F
:10593000479540FF59C08DEC94E00E94450763E015
:1059400088E00E94380A8DEA94E00E94450764E0EE
:1059500088E00E94380A8DE894E00E94450765E0DF
:1059600088E00E94380A8DE694E00E94450762E0D4
:105970008FE00E94380A8091C3049091C404892B5F
:1059800009F4CACE8091FF02882309F4C5CE809124
:10599000FC028111C1CE8091BA02811109C062E07E
:1059A00070E08DEE94E00E944B118111F092BA02EA
:1059B0002091C3043091C4042115310509F4ACCE03
:1059C00080E041E050E0082F10E02A01082E02C0DC
:1059D000440C551C0A94E2F7B20162237323672B2F
:1059E00009F05BC08F5FEFCF95958795959587956B
:1059F00080FF1BC08DE494E00E94450763E088E0CF
:105A00000E94380A8DE294E00E94450764E088E035
:105A10000E94380A8DE094E00E94450765E088E026
:105A20000E94380A8DEE93E0A0CF20FF1BC08DECC2
:105A300093E00E94450763E088E00E94380A8DEAFF
:105A400093E00E94450764E088E00E94380A8DE8F0
:105A500093E00E94450765E088E00E94380A8DE6E1
:105A600093E083CF8DE493E00E94450763E088E0F4
:105A70000E94380A8DE293E00E94450764E088E0C6
:105A80000E94380A8DE093E00E94450765E088E0B7
:105A90000E94380A8DEE92E068CF9091FB0290FF51
:105AA0009CC0880F880F880F809362011092650157
:105AB000895F8093630187E08093660124E630E08C
:105AC00047E050E060E671E088E70E94EA30892B09
:105AD00009F022CEA80176E0440F551F7A95E1F730
