:100000000C94AD060C94CA060C94CA060C94AE2E41
:100010000C94CA060C94CA060C94CA060C94CA0620
:100020000C94CA060C94CA060C947D140C9489187E
:100030000C946E250C94CA060C94CA060C94CA063D
:100040000C94CA060C94CA060C94CA060C94CA06F0
:100050000C94CA060C9456150C94CA060C94CA0645
:100060000C94CA060C94CA060C94CA060C94CA06D0
:100070000C94CA060C94CA060C94CA060C94CA06C0
:100080000C94CA060C94CA060C94CA060C94CA06B0
:100090000C94CA060C94CA060C94CA060C94CA06A0
:1000A0000C94CA060C94CA060C94CA0629001E00B9
:1000B0001F00200021002200230000002B0014005C
:1000C0001A0008001500170000000000E2000400FC
:1000D0001600070009000A0000000000E1006400AB
:1000E0001D001B000600190005000000E000E300F1
:1000F00021522C0000000000000000004A002A00ED
:100100002E002D0027002600250024004D00280089
:1001100030002F00130012000C0018004B003100BB
:10012000340033000F000E000D001C004E00520082
:10013000E50038003700360010000B004F0051007A
:100140005000E6002A002C002252110001003A0063
:100150003B003C003D003E003F000000010001006C
:1001600001000100010001000000000035001E0236
:100170001F022002210222020000000001000100F3
:100180000100010001000100010000000100010068
:100190000100010000000000000000000100450017
:1001A00045004400430042004100400001000100BE
:1001B0000100010001000100010001000100010037
:1001C0003502270226022502240201000100010057
:1001D00030022F022E022D02310223020100010003
:1001E00001000100010001006352010001003A001A
:1001F0003B003C003D003E003F00000001000100CC
:1002000001000100010001000000000035001E0295
:100210001F02200221022202000000000100010052
:1002200001000100010001000100000001000100C7
:1002300063520100000000000000000001004500C2
:10024000450044004300420041004000010001001D
:100250000100010001000100010001000100010096
:1002600035022702260225022402010001000100B6
:1002700030022F022E022D02310223020100010062
:1002800001000100010001000100010001003A002D
:100290003B003C003D003E003F000000010001002B
:1002A00001000100010001000000000035001E02F5
:1002B0001F022002210222020000000001000100B2
:1002C0000100010001000100010000000100010027
:1002D0006352010000000000000000000100450022
:1002E000450044004300420041004000010001007D
:1002F00001000100010001000100010001000100F6
:100300003502270226022502240201000100010015
:1003100030022F022E022D023102230201000100C1
:1003200001000100010001006352010000DA1281A6
:10033000FFD9F1DB20A4A62EAF00A0C0D30000A1FE
:10034000C8D30000AED580A83F408D14200000AE79
:100350000000000000000000000181FFFFEBF5E15C
:10036000E1E1E1E1A155FF81010000000000000092
:100370000000000000000000E040A141A0FFAA44EE
:1003800064BB44A0FFA041A140E0000000000000C9
:10039000000000000000020000008080C0E0F07853
:1003A000BC3C7870E0C080840000000000000400C5
:1003B00000400000000000000000004000010000BC
:1003C000000010000000000000000000100000000D
:1003D0004B65656273006F6365616E00000000002D
:1003E00000000000000001030307070F0F070703C9
:1003F00003010100000000000000000000000011E7
:100400003A3A7C7CF8F8F1E3E3C7C78F8FC7C7E3BC
:10041000E3F1F0F87C7C3A3A110000000000001093
:10042000B8B87C7CFEFEFFFFFFFFFFFFFFFFFFFF72
:10043000FFFFFFFE7C7CB8B8100000000000000049
:10044000000000000000008080C0C0E0E0C0C0806C
:10045000800000000000000000000000000000001C
:100460000000000000000102020404080804040265
:100470000201010000000000000000000000001167
:100480002B2B47478F8F1F3E3E7C7CF8F87C7C3EB1
:100490003E1F1F8F47472B2B11000000000000104C
:1004A000A8A8C4C48282010000000000000000006F
:1004B00000018182C4C4A8A8100000000000000050
:1004C000000000000000008080404020204040806C
:1004D000800000000000000000000000000000009C
:1004E00000000000000001020204040808040402E5
:1004F00002010100000000000000000000000011E7
:100500002A2A4444888811232347478F8F4747234B
:100510002311108844442A2A110000000000001012
:10052000B8B87C7CFEFEFFFFFFFFFFFFFFFFFFFF71
:10053000FFFFFFFE7C7CB8B8100000000000000048
:10054000000000000000008080C0C0E0E0C0C0806B
:10055000800000000000000000000000000000001B
:1005600000000000000001030307070F0F07070347
:100570000301010000000000000000000000001165
:100580003A3A7C7CF8F8F1E2E2C4C48888C4C4E258
:10059000E2F1F0F87C7C3A3A110000000000001013
:1005A000A8A844448282010000000000000000006E
:1005B000000181824444A8A810000000000000004F
:1005C000000000000000008080404020204040806B
:1005D00080000000000000000000000000AF0001EB
:1005E00001010101010101010202020202020202F3
:1005F00002030303030303030304040404040404C5
:100600000505050505060606060607070707070888
:10061000080808090909090A0A0A0B0B0B0C0C0C3B
:100620000D0D0D0E0E0E0F0F0F10101111111212D5
:1006300013131414151516161717181819191A1A52
:100640001B1B1C1D1D1E1E1F2020212222232424B3
:10065000252626272829292A2B2C2D2D2E2F3031EF
:100660003232333435363738393A3B3C3D3E3F4001
:100670004142434445464748494A4C4D4E4F5051EC
:100680005354555658595A5B5D5E5F6162646566A6
:1006900068696B6C6D6F7072737577787A7B7D7E2D
:1006A0008082838587888A8C8E8F91939596989A7D
:1006B0009C9EA0A2A3A5A7A9ABADAFB1B3B5B7BA95
:1006C000BCBEC0C2C4C6C9CBCDCFD1D4D6D8DBDD69
:1006D000DFE2E4E7E9EBEEF0F3F5F8FAFDFF050100
:1006E0000902A10185020901A100050919012908D2
:1006F00015002501950875018102050109300931B0
:100700001581257F95027508810609381581257F99
:10071000950175088106050C0A38021581257F951B
:100720000175088106C0C005010980A10185031972
:10073000012AB700150126B700950175108100C088
:10074000050C0901A101850419012AA00215012641
:10075000A002950175108100C005010906A10105DF
:100760000719E029E7150025019508750181029513
:1007700001750881010507190029FF150026FF00F2
:100780009506750881000508190129051500250140
:10079000950575019102950175039101C009023B10
:1007A00000020100A0FA0904000001030101000990
:1007B00021110100012244000705810308000109FD
:1007C0000401000103000000092111010001227B46
:1007D000000705820320000112010002000000084A
:1007E0001310671100010102000112035300700091
:1007F0006C0069007400200036003700000016030A
:100800006F006300650061006E004B0065006500CD
:1008100062007300000004030904000000000000EF
:100820003E5B4F5B3E003E6B4F6B3E001C3E7C3E92
:100830001C00183C7E3C18001C577D571C001C5E99
:100840007F5E1C0000183C180000FFE7C3E7FF00B4
:10085000001824180000FFE7DBE7FF0030483A06E5
:100860000E00262979292600407F05050700407FD4
:1008700005253F005A3CE73C5A007F3E1C1C0800FF
:10088000081C1C3E7F0014227F2214005F5F005F63
:100890005F0006097F017F00006689956A0060603D
:1008A0006060600094A2FFA2940008047E04080027
:1008B00010207E20100008082A1C0800081C2A08A6
:1008C00008001E10101010000C1E0C1E0C003038FA
:1008D0003E383000060E3E0E06000000000000000C
:1008E00000005F000000000700070000147F147F75
:1008F0001400242A7F2A1200231308646200364958
:1009000056205000000807030000001C2241000090
:100910000041221C00002A1C7F1C2A0008083E08F7
:100920000800008070300000080808080800000077
:10093000606000002010080402003E5149453E005E
:1009400000427F4000007249494946002141494D1B
:1009500033001814127F10002745454539003C4AE2
:1009600049493100412111090700364949493600FA
:10097000464949291E0000001400000000403400D0
:100980000000000814224100141414141400004143
:10099000221408000201590906003E415D594E002B
:1009A0007C1211127C007F49494936003E41414189
:1009B00022007F4141413E007F49494941007F0972
:1009C000090901003E41415173007F0808087F007A
:1009D00000417F4100002040413F01007F08142278
:1009E00041007F40404040007F021C027F007F04A6
:1009F00008107F003E4141413E007F090909060081
:100A00003E4151215E007F09192946002649494986
:100A1000320003017F0103003F4040403F001F20A0
:100A200040201F003F4038403F006314081463001B
:100A30000304780403006159494D4300007F41419C
:100A40004100020408102000004141417F000402DF
:100A5000010204004040404040000003070800003D
:100A60002054547840007F2844443800384444449B
:100A70002800384444287F00385454541800000893
:100A80007E0902001824241C78007F0804047800E2
:100A900000447D4000002040403D00007F1028447D
:100AA000000000417F4000007C04780478007C084E
:100AB000040478003844444438007C182424180086
:100AC000182424187C007C0804040800485454545A
:100AD000240004043F4424003C4040207C001C20AF
:100AE00040201C003C4030403C004428102844007A
:100AF0004C9090907C004464544C44000008364173
:100B000000000000770000000041360800000201EC
:100B1000020402003C2623263C00000000000000E6
:100B20000000C0E0F0F8F81800C0F0FCFEFFFFFF86
:100B3000FFFFFFFF7E00000000F8042252E2424265
:100B400042E2522222224282020222220204F800BF
:100B500000F80402028242224282020202824222FF
:100B6000122242820204F80000F8FCDEAE1EBEBE75
:100B7000BE1EAEDEDEDEBE7EFEFEDEDEFEFCF8006B
:100B800000F8FCFEFE7EBEDEBE7EFEFE0000000023
:100B90000000808040402020101008081010202005
:100BA000404080808080C0C0E0E0F0F0F8F8F0F0D5
:100BB000E0E0C0C080808080404020201010080805
:100BC0001010202040408080808040C060A050B045
:100BD00058A850B060A040C0808000F8FCFEFFE044
:100BE00000FFFFFFFFFFFF80FFFFFFFFFFFFFFFF93
:100BF000FF1F070100000000001F20444A47424237
:100C000042474A44404040404142444440201F0043
:100C1000001F2040414040404040414041414F483A
:100C200048484F4141201F00001F3F7B75787D7D64
:100C30007D78757B7F7F7F7F7E7D7B7B7F3F1F0005
:100C4000001F3F7F7E7F7F7F7F7F7E7F00000000D1
:100C5000000088885D5D3E3E7C7CF8F87C7C3E3EF2
:100C60005D5D888888885555232347478F8F474780
:100C70002323555588888888D5D5E2E2C4C488885E
:100C8000C4C4E2E2D5D5888888885DD56BB66DD6B8
:100C9000ADDA6DD66BB65DD5888800030F1F3F3F78
:100CA0003F3F1F1F3F3F7F7F7F3F3F1F3F7F7F7F34
:100CB0007F7C7878381C0F0004F80000F804201FAF
:100CC00000001F20FCF80000F8043F1F00001F2058
:100CD00004F80000F8FC201F00001F3FFCF8000093
:100CE000F8FC3F1F00001F3FFE7EBEDEEEDEBE7E34
:100CF000FEFCF8007E7E70777777707E7E3F1F0067
:100D000000000000000000000000000000000000E3
:100D100000000000010102020404080804040202A9
:100D2000010100000000010102020404080804049B
:100D300002020101000000000101030307070F0F79
:100D4000070703030101000000000101030205067B
:100D50000D0A050603020101000011241FBECFEF9A
:100D6000DAE0DEBFCDBF11E0A0E0B1E0EEEDF4E6E9
:100D700002C005900D92A83CB107D9F728E0A8EC75
:100D8000B1E001C01D92A73CB207E1F70E94952592
:100D90000C9419320C940000CF93DF934091C50856
:100DA0005091C608455C54409A01205E3F4F213067
:100DB0003440C0F020E034E0241B350B6091C304C4
:100DC0007091C404FC01CA01240F351FC1E0D0E0BA
:100DD0008217930750F07093C4046093C304DF91AB
:100DE000CF91089520E230E0E9CF4491DC01AB538C
:100DF000BB4F5C91451781F04C93AC01A6E0569532
:100E00004795AA95E1F7DE0102C0AA0FBB1F4A95DC
:100E1000E2F7AD016A2B752B01963196D9CF482F99
:100E20002091B80490917F0457E0291302C080E01C
:100E3000089530E0529FF001539FF00D1124E058C7
:100E4000FB4F8181681306C08081481303C08581F0
:100E50008111EECF2F5F3F4F2770E7CFE8EDF0E035
:100E600080818E7F80831092E2001092DA001092CF
:100E7000E100A0EEB0E08C9181608C9380818F774F
:100E8000808319BCA7EDB0E08C918E7F8C9380811C
:100E90008F7E80831092680408952091E400309141
:100EA000E50095E6A9012091EC00822F817020FFDA
:100EB00006C08091E80080FF06C080E00895209180
:100EC000E80022FD1AC080917504882389F08530DE
:100ED00089F08091EB0085FD0FC02091E4003091F6
:100EE000E50042175307F9F29150E1F684E00895C6
:100EF00082E0089583E0089581E008958091770469
:100F000087FF13C08091E80082FF06C08091E8004F
:100F10008B778093E80004C0809175048111F2CF33
:100F20000895809175048823D9F38091E80080FFAB
:100F3000F8CF8091E8008E77ECCF982F9093E9005E
:100F4000242F762F50E0891731F07091EC0020911A
:100F5000ED005091F00021FD07C09F5F973071F7C1
:100F60008093E90081E008953091EB003E7F30935B
:100F7000EB003091ED003D7F3093ED003091EB00C0
:100F800031603093EB007093EC002093ED005093B0
:100F9000F0002091EE0027FDE0CF80E00895B0E062
:100FA000A0E0E5EDF7E00C94E82FC8EDD0E08881F3
:100FB0008F7E8883E7EDF0E080818160808384E02C
:100FC00082BF81E08093680488818E7F888302EEEF
:100FD00010E0F80110821092DA0081EEC82ED12CB8
:100FE000F601108288818F77888388818068888362
:100FF00088818F7D888319BC1092750410927604C5
:10100000109274041092730490EEE92EF12CF70103
:1010100080818B7F808388818160888342E060E06B
:1010200080E00E949D07F60180818E7F8083F80119
:10103000808181608083808188608083F7018081E6
:101040008E7F8083888180618883CDB7DEB7E8E0BA
:101050000C940430FC0180917D0490917E048617ED
:101060009707A0F06115710529F49091E8009E772B
:101070009093E80090E06115710551F4911108C05A
:101080008091E80082FF34C080E00895BC01F2CF77
:10109000809175048823C1F18530C1F18091E80009
:1010A00083FD30C08091E80082FDEACF8091E800A6
:1010B00080FFE1CF8091F3002091F200382F61157D
:1010C000710519F02830310558F091E028303105CC
:1010D00009F090E02091E8002E772093E800CBCF34
:1010E00081918093F100615071092F5F3F4FE7CFED
:1010F00080917504882341F0853041F08091E800AB
:1011000083FFBECF81E0089582E0089583E00895D3
:10111000089580916A04089587E797E790930108FE
:101120008093000888E19AE00FB6F894A895809320
:1011300060000FBE90936000FFCF2FB7F8946091CE
:1011400064047091650480916604909167042FBFD8
:101150000895DC01FB0111969C91119781819813F0
:1011600022C012968C911297882319F092818913CC
:101170001AC013968C911397882319F093818913C1
:1011800012C015968C911597882319F095818913B3
:101190000AC014969C91992321F081E0248129139F
:1011A00003C080E001C081E0817008959C01FC01D2
:1011B00032969FEF80E04191461751F09F3F19F41E
:1011C000411101C0982F8F5F8630A9F79F3F09F426
:1011D0000895290F311D97FD3A95F901628308950D
:1011E000A3E0B0E0E6EFF8E00C94EE2F209161046C
:1011F0003091620428173907A1F09093620480931C
:101200006104E0915F04F0916004309751F024E0B4
:1012100029839B838A830084F185E02DCE0101968A
:1012200009952396E2E00C940A30A3E0B0E0EBE1EC
:10123000F9E00C94EE2F20915D0430915E042817A4
:101240003907A1F090935E0480935D04E0915F0400
:10125000F0916004309751F023E029839B838A83C7
:101260000084F185E02DCE01019609952396E2E0F8
:101270000C940A30E0915F04F0916004309739F0EB
:1012800022E0DC012C930680F781E02D099508957A
:1012900080915B04882359F0E0915F04F091600431
:1012A000309729F00190F081E02D0995089580E0B4
:1012B00008958091500480FD16C081FD16C082FD06
:1012C00016C080914F048823A1F0883280F428E072
:1012D000829FC001112468E270E00E942130862FB5
:1012E000672B39F0089582E0089584E0089588E03E
:1012F000089581E008958091500480FD14C081FD1F
:1013000014C082FD16C080914E04882381F08E3176
:1013100080F420E5829FC00111246EE170E00E94FC
:101320002130862F089584E1089588E2089588E0A9
:10133000089580E50895282F35EB2303C00111247B
:1013400097FF04C080589109892F089580589F4FB6
:10135000FBCFFC01680F791F8FEF91E3219182276A
:1013600028E030E087FF09C0880F89272150310924
:10137000C9F7E617F70791F70895880FF7CF20917F
:10138000BC0436E0839FC0011124629F800D911D33
:101390001124811524E0920714F090E080E08B5333
:1013A0009B4F9093C6088093C5080895FA01811158
:1013B00001C0FB0109950895609168018091460480
:1013C00080FF0CC070E08091670123E0829FC00124
:1013D0001124865E9C4F0E94880F089580916901B8
:1013E00090916A0123E0829FF0011124E65EFC4F98
:1013F000891740F71182108212828F5F3396F8CFDF
:1014000080914604982F9C7F71F4809146048370EC
:1014100084608093460480914904813818F080E804
:10142000809349040895883080F7F5CFACE0B0E0B0
:10143000ECE1FAE00C94EE2F4F83588769877A87A6
:101440008B879C8786E0FE013796DE01119601901E
:101450000D928A95E1F729813A814B815C816D81FA
:101460007E8180E090E02C96E2E00C940A3080E0EF
:101470000895F894E82FE295EF70F0E031A1282F5D
:101480002F7081E090E001C0880F2A95EAF7982F2D
:101490009095932391A392A1892B82A37894089588
:1014A0000F931F9380915B04882329F00E949D086D
:1014B0001F910F9108950E949D080091980210912C
:1014C000990220919A0230919B02600F711F821F36
:1014D000931FEECF9091A80292FF10C041E0282FF9
:1014E0002471243009F040E031E0282F28712830A1
:1014F00009F030E0431711F02CE0822793FF10C071
:1015000041E0282F2471243109F040E031E0282FF8
:101510002871283109F030E0431711F02CE08227C0
:101520003091A90230FF10C051E0282F21712130E5
:1015300009F050E041E0282F2871283009F040E000
:10154000541711F029E0822731FF10C041E0282F05
:101550002171213109F040E031E0282F2871283134
:1015600009F030E0431711F029E0822794FD877ECF
:10157000089582389105B9F1B0F48133910509F4E9
:101580007DC048F48932910509F46DC08A32910515
:1015900009F47BC008958533910509F45FC0893350
:1015A000910509F10895833E9105D9F138F4803E03
:1015B000910529F1823E910579F10895863E9105C4
:1015C000D9F1873E910509F43EC0843E910541F56D
:1015D0002091A90221FF24C08091A80284FD19C096
:1015E00087EE90E008952091A802237009F05AC078
:1015F0002091A90223FF14C089E290E00895209170
:10160000A80220FD38C03091A90230FF09C024FF94
:1016100043C090E080E008952091A80222FDF7CF1A
:1016200008952091A80222FD3AC03091A90230FD10
:1016300039C024FFF5CFEDCF2091A80223FFF0CFD2
:1016400024FDE7CFCDCF2091A80223FD2EC03091FD
:10165000A90231FFEECF84EE90E008952091A80218
:1016600025FFDECFC9CF2091A80225FD21C0209102
:10167000A90223FFD5CF89E390E0D2CF2091A80221
:1016800026FFCECF8AE290E008952091A80226FF9F
:10169000C7CF81E390E0089583EE90E0089582EE55
:1016A00090E0089580EE90E0089586EE90E0089531
:1016B00085E390E008957A30C8F46830B8F4843057
:1016C000C0F4E72FF0E09AE0899FE00DF11D1124AE
:1016D00083E0EE0FFF1F8A95E1F7E60FF11DEE0F95
:1016E000FF1FE455FF4F85919491089580E090E0AD
:1016F000089581E0FCCF1F93CF93DF930E94B90A36
:10170000EC01C11580E5D807F0F5C11580E4D807D4
:1017100008F09CC0C03ED10520F5CD3CD10508F0B5
:1017200082C0C83AD10578F4C53AD10508F073C033
:10173000C130D10519F1209709F1C430D105F0F479
:10174000D0E0C0E01BC0C33CD105D0F7C85AD0E000
:10175000CC0FDD1FC059DE4F0990D881C02DD46455
:101760000DC0C11580E2D80708F0D1C0C11581E0D5
:10177000D80708F05AC0C83ED10510F7CE01DF9156
:10178000CF911F910895C03682E5D80718F5C0346F
:1017900082E5D80708F06BC0C03282E5D80708F0B0
:1017A0005FC0C11582E5D80708F497C02C2F269595
:1017B000269580E2289F900111248C2F8370C1E030
:1017C000D0E002C0CC0FDD1F8A95E2F7C22BD32BED
:1017D000DD68D4CFC03A82E5D80760F4C03882E52E
:1017E000D80708F459C0CF71D0E0DC2FCC27C46FE4
:1017F000D06AC4CFC03C82E5D80708F462C0C03EBE
:1018000082E5D80708F09CCFDC2FCC27CC27DF71EE
:10181000C06FD06AB3CFC55AD0E0C359DE4FC8817C
:10182000D0E0D064ABCFD065A9CF8D2F0E946A0ADB
:10183000182FCE0199270E94B90AC12FD0E0DC2FC2
:10184000CC27CC27DF71C82BD92B98CFCE01992775
:101850000E94B90ACC27DF70C82BD92BD06A8ECF53
:10186000CF71D0E0DC2FCC27C16FD06A87CF2C2F6F
:1018700026952695277080E2289F900111248C2FB1
:101880008370C1E0D0E002C0CC0FDD1F8A95E2F783
:10189000C22BD32BDC6872CF2C2F26952695277070
:1018A00080E2289F900111248C2F8370C1E0D0E04A
:1018B00002C0CC0FDD1F8A95E2F7C22BD32BDA686A
:1018C0005DCF8C2F8F710E946A0AC82FD0E0DC2F69
:1018D000CC27CC27DF71D06251CF8C2F8F710E9423
:1018E0006A0A55E0D695C7955A95E1F7CF70D0E0D2
:1018F000DC2FCC27282F30E084FF05C044E0220FE6
:10190000331F4A95E1F7C22BD32BD06937CF8D2FE8
:101910008F710E946A0A182FCE0199270E94B90A76
:10192000C12FD0E0DC2FCC27CC27DF71C82BD92BDF
:10193000D2CF809590918802982390938802089541
:101940008091B80490917F04981301C008958F5F2F
:101950008770FACFB0E0A0E0E0EBFCE00C94E72F5A
:101960007C010091C2021091C30280918202909189
:101970008302082B192BCFE0D0E0CC24C394D12CC8
:10198000BC2EC6010C2E02C0880F991F0A94E2F7E4
:1019900080239123892B49F4219790F7B12C8B2D2B
:1019A000CDB7DEB7E9E00C940330B7018C2F0E946D
:1019B0005B0B0E947B0B019779F3F1CFCF93DF9301
:1019C000EC010E94AA0CBE010E945B0B0E947B0BE3
:1019D000DF91CF9108959A3070F5883060F528E056
:1019E000929FF0011124E80FF11D6E2F677083E0C4
:1019F000F695E7958A95E1F7EE0FFF1FEE0FFF1FB3
:101A0000EC5FFD4F50E040E080E0219130E0062E99
:101A100002C0369527950A94E2F721703327042EE9
:101A200001C0220F0A94EAF7822B4F5F5F4F4430C8
:101A3000510559F7089580E008959A3090F588305F
:101A400080F528E0929FF0011124E80FF11D2E2F60
:101A5000277041E001C0440F2A95EAF783E0F6952C
:101A6000E7958A95E1F7EE0FFF1FEE0FFF1FEC5F82
:101A7000FD4F30E020E070E05191DF011197CB0184
:101A8000022E02C0969587950A94E2F7817081959F
:101A90008527842385278C932F5F3F4F2430310582
:101AA00059F708959093C3028093C202089521E0EC
:101AB00030E002C0220F331F8A95E2F7209530955F
:101AC0008091C2029091C302822393230E94520DFF
:101AD0000895909133028095892380933302282FB3
:101AE000277069F4891759F09091A90292FF07C0F5
:101AF0008695869586950E94570D1092330208951B
:101B000021E030E002C0220F331F8A95E2F7809176
:101B1000C2029091C302822B932B0E94520D089512
:101B200090938302809382020895FC0124812223F2
:101B3000C1F0808191810E94DE0C92959F70963059
:101B400091F058F4925F9F70923058F4803F19F0F2
:101B500030F4883E30F481E008959A5FF4CF843FFA
:101B6000D1F380E00895883EB0F3813FD1F7F3CF01
:101B7000A6E0B0E0EEEBFDE00C94ED2F49835A8334
:101B800049815A819923A1F0222391F0CA010E9430
:101B9000AA0C182F682F89819A810E941D0D6981D6
:101BA0007A81812F0E945B0B2696E3E00C9409302A
:101BB000CA010E94EB0C182FF2CF9C01832F817079
:101BC00031FD8260FB0109950895CF936BE073E0CE
:101BD00081E193E00E94A908C82F882321F081E1C8
:101BE00093E00E943A099091120386E0E1E1F3E06C
:101BF000DF01282F1D922A95E9F790931203ABE09D
:101C0000B3E001900D928A95E1F781E0C11103C024
:101C1000911101C080E08170CF910895CF93DF933F
:101C2000C091C508D091C6088A30C1F42091BC0487
:101C3000CE01855C9440622F70E00E94CA2F281B61
:101C4000822F66E00E941530C82FC15018F4DF9132
:101C5000CF91089580E20E940E0EF7CF8D30E9F407
:101C6000C55CD4402091BC04622F70E0CE010E947C
:101C7000CA2F281B822F9E01280F311D21153440A9
:101C800018F080E0D0E0C0E0C80FD11DCB53DB4F8F
:101C9000D093C608C093C508DACF96E0FE01ADEB3D
:101CA000B4E001900D929A95E1F7803E08F458C097
:101CB00086E0FE0111928A95E9F7C091C508D0919E
:101CC000C60846E050E0BE018DEB94E00E947A30F9
:101CD0009E01255C3440892B41F1C90146E096956F
:101CE00087954A95E1F741E050E0BA0102C0660FDE
:101CF000771F8A95E2F7CB016091C3047091C40409
:101D0000862B972BB9016B5F7F4FE6E07695679541
:101D1000EA95E1F702C0440F551F6A95E2F7842B5C
:101D2000952B9093C4048093C3042A5F3F4F409146
:101D3000BC04642F70E0C9010E94CA2F481B4630C2
:101D400010F4240F311D211574E0370710F030E036
:101D500020E02B533B4F3093C6082093C50877CF24
:101D6000F6E08F9FB0011124665E774F46E050E0A9
:101D7000CE010E947130A1CFCF93DF93EC01FE0121
:101D80008491811103C0DF91CF9108950E940E0EBE
:101D90002196F5CF2091880280918902282B80918D
:101DA0008A02882381F0282B30E08CEC91E0FC0142
:101DB0004191CF0141113F5FF1E0823D9F07B9F7AB
:101DC000311110928A022093CA0148E050E064E386
:101DD00072E08AEC91E00E947A30892BA9F088E0C9
:101DE000EAECF1E0A4E3B2E001900D928A95E1F70C
:101DF000E0915F04F0916004309731F00280F3814C
:101E0000E02D8AEC91E009950895882341F08095B2
:101E1000909189028923809389020E94CA0E0895B5
:101E2000882339F090918902982B909389020E941F
:101E3000CA0E0895882321F00E94990C0E94CA0EB0
:101E40000895882339F090918802982B9093880206
:101E50000E94CA0E08950F931F93CF93DF938B01B7
:101E6000EA0190917504943061F58093E9008FEF59
:101E70009091E800815095FD06C095ED9A95F1F797
:101E800000008111F5CF8091E80085FF1AC00E9403
:101E90004D07811111C08091E80085FD06C0809139
:101EA000E8008E778093E800F2CFF80181918F01EE
:101EB0008093F100219779F78091E8008E778093E5
:101EC000E800DF91CF911F910F91089543E050E01A
:101ED000BC0182E00E942B0F089546E050E0BC0157
:101EE00082E00E942B0F0895CF93DF93EC0148E02E
:101EF00050E0BC0181E00E942B0F88E0FE01ABE6C0
:101F0000B4E001900D928A95E1F7DF91CF910895A9
:101F1000539A4BB1477F5BB15860EFB7F8949B0180
:101F2000220F331F260F371F280F391F2817390795
:101F300041F4EFBF8FE594E00197F1F700C0000096
:101F40000895DC016D91CD0178E05BB9000000C01F
:101F500067FF4BB9660F000000C000C000C04BB95E
:101F600000C07A9591F7E2CFB0E0A0E0EAEBFFE0A5
:101F70000C94E62F7C015B016A018091970201E0DD
:101F800010E08A3010F40AE010E0C1E0D0E0B501C2
:101F9000C701F6010995811104C021960C171D0790
:101FA0002CF4CDB7DEB7EAE00C940230CC9F900160
:101FB000CD9F300D300D112490E080E045E34A952F
:101FC000F1F70000019682179307C1F7E0CFAB014C
:101FD00024E630E0BC0188E70E94912C21E0892BA7
:101FE00009F020E0822F0895B0E0A0E0EAEFFFE0E2
:101FF0000C94E42F49015A016B017C010E94000AF4
:102000008401A4016A2D7B2D88E090E00E94C630F7
:1020100094014A2D5B2DB601C70100E20E945630A3
:10202000622F84E290E00E94B430CDB7DEB7ECE0DE
:102030000C940030B0E0A0E0E0E2F0E10C94E42F7A
:10204000182FC62FD42F822E0091460400FF51C0B6
:1020500080914704811308C080914804861304C00E
:1020600080914904841729F080911903826080933C
:102070001903E02FE695E695F0E0EB53FE4F8081E3
:1020800080931703802F8C7F8430E9F4ED2FD138B3
:1020900008F0E0E8F0E0E252FA4FC1112FC02491BD
:1020A000F22FE22F00FF0FC08091690190916A0129
:1020B00033E0839FD0011124A65EBC4F891708F43A
:1020C00092C00E94DC0910934704C0934804D09347
:1020D0004904882071F02091460460914A0470916F
:1020E0004B04312FAE0180914C0490914D040E941D
:1020F000F40FCDB7DEB7ECE00C940030EC2EF12CF1
:10210000E4919E2ECE2ED12C26E0129FC0011124E8
:102110002FEF30E0B9010E94CA2F812F90E0880F85
:10212000991FF5E5F69FA001F79F500D1124841B20
:10213000950BB82EBB0CB80EA9014E195F094C9D2A
:10214000C0014D9D900D5C9D900D1124F92FCB9DEC
:10215000A0011124452F5527D901A41BB50BAC9D17
:10216000A001AD9D500DBC9D500D1124D901AB199E
:10217000B1095D01AE9CD001AF9CB00DBE9CB00D0D
:102180001124AB2FBB272A1B3B0B2C9DD0012D9D6F
:10219000B00D3C9DB00D11242B2F62307105A1F0C4
:1021A00050F46115710509F47DCF6130710581F03E
:1021B000292FF52F77CF6430710569F080F06630F4
:1021C000710509F46FCFF4CF2E2FE92FFB2F6ACFC3
:1021D0002E2FE52F67CF292FFE2FEB2F63CFE92F6F
:1021E000F92D252F5FCF1196EC9311972C93129612
:1021F000FC9312978F5F139661CFE6E4F4E043817E
:1022000028E0421B08F440E021E0628181810E94C5
:102210001A100895E6E4F4E0438128E0420F08F440
:102220004FEF21E0628181810E941A100895E6E457
:10223000F4E0628128E0621B08F460E021E0438161
:1022400081810E941A100895E6E4F4E0628128E09A
:10225000620F08F46FEF21E0438181810E941A1020
:102260000895E6E4F4E0818121E0438162818850B1
:102270000E941A100895E6E4F4E0818121E0438190
:102280006281885F0E941A10089580914A04882311
:1022900019F0815080934A042091460430914704FC
:1022A000409148045091490460914A0470914B0454
:1022B00080914C0490914D040E94F40F08958091F8
:1022C0004A04833018F48F5F80934A0420914604B7
:1022D00030914704409148045091490460914A0468
:1022E00070914B0480914C0490914D040E94F40F26
:1022F00008952091460420FF24C023702460209379
:10230000460480911903816080931903662381F04C
:1023100030914704409148045091490460914A0427
:1023200070914B0480914C0490914D040E94F40FE5
:1023300020E04091490460914804809147040E9444
:102340001A1008958091460486958695815009F467
:1023500081E061E00E947911089561E081E00E94CE
:10236000791108959091A90292FB222720F928174C
:1023700079F080FB92F99093A9026091A802709184
:10238000A90284E090E00E94D23082E00E94690DB0
:102390000895B0E0A0E0EFECF1E10C94E92F7901B1
:1023A000C82F880FDD0B41155105A9F0FE0193E000
:1023B000EE0FFF1F9A95E1F7E050FF4F8181928168
:1023C000845B9D4F208130E04217530708F49A0147
:1023D000A9010E948730CE010E94542FD82E882355
:1023E000D1F001151105B9F083E0CC0FDD1F8A95FE
:1023F000E1F7FE01E050FF4F438150E0041715075D
:1024000008F4A801C050DF4F6C817D81645B7D4F73
:10241000C7010E9487308D2DCDB7DEB7E7E00C9461
:102420000530A3E0B0E0E7E1F2E10C94EC2F8091FD
:102430008B0290918C02A0918D02B0918E022FB7E9
:10244000F894409164045091650460916604709121
:1024500067042FBF481B590B6A0B7B0B81E0443686
:1024600051056105710508F480E090918802998317
:10247000443651056105710520F420915A02291353
:1024800081E0909189029A83811106C081E02091B8
:102490005B02291301C080E090918A029B83811125
:1024A00005C080915C0211E08917C9F010E000E0DE
:1024B00030E020E043E050E0BE016F5F7F4F85E0F9
:1024C0000E94C911182F882351F00E949D08609323
:1024D0008B0270938C0280938D0290938E02812FD9
:1024E0002396E4E00C940830A4E0B0E0EAE7F2E1DF
:1024F0000C94EC2F40917A0250917B0260917C0207
:1025000070917D022FB7F8948091640490916504D6
:10251000A0916604B09167042FBF841B950BA60B96
:10252000B70B11E084369105A105B10518F10E94A1
:10253000500A6E5F7F4F8F4F9F4F69837A838B83E3
:102540009C8310E000E030E020E044E050E0BE0179
:102550006F5F7F4F82E00E94C911182F882351F0CE
:102560000E949D0860937A0270937B0280937C02A4
:1025700090937D02812F2496E4E00C9408308F9292
:102580009F92AF92BF92EF92FF920F931F93CF93C0
:102590007B01942FB901A801F70180809180A2806E
:1025A000B380EFB7F8940091640410916504209112
:1025B000660430916704EFBF081919092A093B091D
:1025C000043611052105310518F4C1E0992381F085
:1025D00010E000E030E020E00E94C911C82F8823FD
:1025E00039F00E949D08F701608371838283938391
:1025F0008C2FCF911F910F91FF90EF90BF90AF90D4
:102600009F908F900895ABE0B0E0E9E0F3E10C9487
:10261000EC2F88E0E6E4F4E0DE01119601900D92E3
:102620008A95E1F78091170390911803A0911903FF
:1026300089879A87AB8741E08B85811101C040E093
:102640000BE010E09E012F5F3F4F6FE872E086E0E5
:102650000E94BF128111109219032B96E4E00C9492
:1026600008300F931F9341E020915602309157029A
:102670008091C2029091C3022817390709F440E003
:1026800002E010E022EC32E064E872E083E00E94B5
:10269000BF128823B1F041E02091580230915902D5
:1026A00080918202909183022817390709F440E053
:1026B00002E010E022E832E06EE772E084E00E947F
:1026C000BF121F910F910895A1E0B0E0EAE6F3E197
:1026D0000C94E32F762E4A015901680101E010E0C5
:1026E0009E012F5F3F4F50E040E070E060E00E94AD
:1026F000C911182F882309F440C0F4014081518189
:10270000628173812FB7F89480916404909165047D
:10271000A0916604B09167042FBF841B950BA60B94
:10272000B70B84369105A105B10538F4B701C60190
:102730000E94A9099981891701F18701950150E04B
:1027400040E070E060E0872D0E94C911B82EB7010B
:10275000C6010E94A90911E09981981310E01B217C
:1027600039F00E949D08F401608371838283938312
:10277000812F2196EDE00C94FF2FA701B601C50132
:102780000E948730F5CFA6E0B0E0E9ECF3E10C94CD
:10279000EA2F80915C04882391F086E0E82EF12CEA
:1027A00009E612E09E012F5F3F4F43E952E068E0E7
:1027B00087E00E9464132696E6E00C94063081E0E0
:1027C000FACFA5E0B0E0E7EEF3E10C94E82F6B015F
:1027D00085E0E82EF12C0DE412E09E012F5F3F4FC3
:1027E00046E752E061E080E00E946413882349F0EC
:1027F00095E0FE013196A1E7B2E001900D929A9525
:10280000E1F795E0E1E7F2E0D60101900D929A95AB
:10281000E1F72596E8E00C940430A8E0B0E0E3E1AD
:10282000F4E10C94EE2F66EE7EEF90E080E00E94E3
:10283000D23060E082E090E00E94B43081E090E02D
:10284000909383028093820261E083E090E00E9493
:10285000B43060E074E184E090E00E94D23060E047
:1028600086E090E00E94B43060E087E090E00E9453
:10287000B43040E050E0BA0188E090E00E94C630F9
:1028800060E084E290E00E94B43060E087E190E094
:102890000E94B43060E08CE090E00E94B43060E0D0
:1028A0008DE090E00E94B43019821A821B821C8253
:1028B0001D821E821F82188648E050E068E170E0A9
:1028C000CE0101960E94A43040E050E0BA0180E2BF
:1028D00090E00E94C63040E050E0BA018FE090E006
:1028E0000E94C63040E050E0BA0183E190E00E94CF
:1028F000C6302896E2E00C940A301F920F920FB671
:102900000F9211242F933F934F935F936F937F9375
:102910008F939F93AF93BF93EF93FF938091E100C9
:1029200082FF09C08091E20082FF05C08091E10032
:102930008B7F8093E1008091DA0080FF24C080913A
:10294000D80080FF20C08091DA008E7F8093DA006B
:102950008091D90080FF9DC080E189BD82E189BD61
:1029600009B400FEFDCF81E0809375048091680476
:10297000811109C00E942E070E94CF078091E200BA
:1029800084608093E2008091E10080FF17C0809115
:10299000E20080FF13C08091E2008E7F8093E2000E
:1029A0008091E20080618093E2008091D800806293
:1029B0008093D80019BC85E0809375048091E10074
:1029C00084FF2BC08091E20084FF27C080E189BD95
:1029D00082E189BD89B5982F917080FFFBCF8091EE
:1029E000D8008F7D8093D8008091E1008F7E809306
:1029F000E1008091E2008F7E8093E2008091E2000E
:102A000081608093E20080917604882309F447C0B6
:102A100084E080937504809175048091E10083FFC8
:102A200027C08091E20083FF23C08091E100877F6F
:102A30008093E10082E08093750410927604809187
:102A4000E1008E7F8093E1008091E2008E7F809391
:102A5000E2008091E20080618093E20042E060E069
:102A600080E00E949D078091F00088608093F000D4
:102A7000FF91EF91BF91AF919F918F917F916F9156
:102A80005F914F913F912F910F900FBE0F901F902C
:102A9000189519BC109275041092680474CF809137
:102AA000E30087FD93E090937504B5CF78941F926F
:102AB0001FB61F9211248F939F93AF93BF93809162
:102AC000640490916504A0916604B0916704019636
:102AD000A11DB11D8093640490936504A0936604C6
:102AE000B0936704BF91AF919F918F911F901FBECC
:102AF0001F9018959C014FB7F894809164049091B1
:102B00006504A0916604B09167044FBF821B930BCC
:102B100008952FB7F8948091640490916504A09172
:102B20006604B09167042FBF08950E9489159C0127
:102B30009091570480915804982B21F030935404BD
:102B4000209353049091590480915A04982B21F0BA
:102B5000309352042093510485E594E00E943A0991
:102B60000895CF9310928802C6E0ECECF1E0DF010B
:102B70008C2F1D928A95E9F790E080E00E9415095C
:102B800090E080E00E94F008109289020E94CA0E34
:102B9000E5E5F4E0DF011D92CA95E9F710924E04D5
:102BA00010924F04109250040E949515CF910895F1
:102BB000AAE2B0E0EEEDF5E10C94ED2F87E794E0AA
:102BC0002091F100FC012193CF01F4E08F379F07A2
:102BD000B9F780917804833009F470C0B8F481307B
:102BE00009F447C0823009F4B1C08091E80083FF46
:102BF0007EC280917704909178049A3008F077C271
:102C0000E92FF0E0E55EFD4C0C9435308A3009F494
:102C10008CC08B3009F46FC0893039F7809177040C
:102C2000813219F780917B0490917C040297E8F639
:102C30008091E800877F8093E8008091E80082FF20
:102C400038C09091F3008091F200029731F48091A6
:102C5000F100813011F0863021F48091F1008093F1
:102C60006A048091E8008B778093E8000E947E07D9
:102C7000BCCF80917704813A09F0B7CF8091E8000A
:102C8000877F8093E80080917B0490917C04892B5E
:102C900061F468E08BE694E070E00E942A0880917D
:102CA000E8008B778093E800A0CF60E090E080E0C0
:102CB000F3CF809175048111C0CF97CF80917704B5
:102CC000813A09F092CF80917B0490917C04892B0A
:102CD00009F08BCF8091E800877F8093E800809196
:102CE000E80080FFFCCF80916C018093F10080911F
:102CF000E8008E77B9CF80917704813209F075CFE3
:102D000080917B0490917C04892B09F06ECF809197
:102D1000E800877F8093E8000E947E078091790415
:102D200080936C010E94B11560CF8091770481324D
:102D300009F05BCF8091E800877F8093E8000E94D4
:102D40007E0780917A04809369044FCF8091770445
:102D5000813A09F04ACF8091E800877F8093E800AC
:102D60008091E80080FFFCCF80916904BECF80385D
:102D700099F0823809F0BBC180917B048F70873055
:102D800008F0B5C18093E9008091EB0085FB8827AE
:102D900080F91092E90006C0809173049091740448
:102DA000911182609091E800977F9093E800809362
:102DB000F1001092F1008091E8008E7794C1882391
:102DC00009F482C1823009F092C1809179048111A5
:102DD00085C180917B048F702FEF280F263008F07B
:102DE00086C18093E9002091EB0020FF77C19330EA
:102DF00031F48091EB0080628093EB006FC1909181
:102E0000EB0090619093EB0021E030E001C0220FD5
:102E10008A95EAF72093EA001092EA008091EB008D
:102E20008860EACF811163C1109179041F77809186
:102E3000E3008078812B8093E3008091E800877F16
:102E40008093E8000E947E078091E80080FFFCCF1D
:102E50008091E30080688093E30082E0111183E0B9
:102E60008093750444C18058823008F040C180913D
:102E7000790490917A048C3D23E09207A1F583E0D8
:102E80008A838AE289834FB7F894DE01139620E0A3
:102E90003EE051E2E32FF0E050935700E49120FF31
:102EA00003C0E295EF703F5FEF708E2F90E0EA3045
:102EB000C0F0C7968D939D932F5F243159F74FBF74
:102EC0008091E800877F8093E8006AE270E0CE019D
:102ED00001960E942A088091E8008B778093E80091
:102EE00006C1C096E7CF40917B0450917C04292F06
:102EF00033272330310509F444C078F521303105FA
:102F000009F46FC08BE390E0EDE9F7E02230310582
:102F100009F0EDC02091E800277F2093E800209180
:102F20007D0430917E048217930708F49C0140E0F1
:102F30002115310509F064C0411162C08091E8009B
:102F400082FDC9CF80917504882329F2853019F25A
:102F50008091E80083FFF2CFBECF21323105A9F185
:102F60002232310509F0C3C04115510509F443C0AF
:102F70004130510509F0BBC08BE790E0EEEDF6E083
:102F8000C9CF992781309105C1F0009759F0029778
:102F900009F0ADC0EAEEF7E0E4918E2F90E0EAEEA2
:102FA000F7E007C0E6E1F8E0E4918E2F90E0E6E17B
:102FB000F8E0009709F49BC0ADCFEEEFF7E0E491A5
:102FC0008E2F90E0EEEFF7E0F4CF4115510571F050
:102FD0004130510509F08BC089E090E0E8ECF7E062
:102FE00099CF82E190E0E8EDF7E094CF89E090E0BE
:102FF000EFEAF7E08FCF84E490E0E9E5F7E08ACFED
:1030000080917504882309F466CF853009F463CF75
:103010008091E80083FD5FCF8091E80082FD8ECF34
:103020008091E80080FF84CF9091F3008091F200BE
:103030002115310519F08830910550F041E00897CD
:1030400009F040E08091E8008E778093E80070CF2F
:1030500044914093F1003196215031090196E8CF17
:10306000803809F044C08091E800877F8093E800B1
:10307000809176048093F1009ECE811138C010912A
:1030800079041230A0F58091E800877F8093E800F2
:10309000109376040E947E07112311F084E005C08E
:1030A0008091E30087FDFACF81E08093750442E0D0
:1030B00061EC81E00E949D0742E261EC82E00E94A7
:1030C0009D078091750413C080917904813079F453
:1030D00081E0933009F080E0809374041092E9005D
:1030E0008091E800877F8093E8000E947E078091AE
:1030F000E80083FF0AC08091E800877F8093E800A2
:103100008091EB0080628093EB00AA96E3E00C9440
:1031100009301F920F920FB60F9211242F933F93F5
:103120004F935F936F937F938F939F93AF93BF93CF
:10313000CF93DF93EF93FF93D091E900DF708091FD
:10314000EC00C82FC17080FDC0E81092E9008091AA
:10315000F000877F8093F00078940E94D815109239
:10316000E9008091F00088608093F000CD2BCF7053
:10317000C093E900FF91EF91DF91CF91BF91AF91A3
:103180009F918F917F916F915F914F913F912F917F
:103190000F900FBE0F901F9018950E94B1152FEF42
:1031A00084E39CE0215080409040E1F700C00000A3
:1031B00088E19AE00FB6F894A895809360000FBE5E
:1031C00090936000FFCF4091570490915904209153
:1031D0005A04662309F47EC0942B922B2091580444
:1031E000922B31F098E090934E0491E090934F042D
:1031F0008D3C41F40E947B098195809358040E9484
:10320000951508958E3C19F40E947B09F6CF8F3CEA
:1032100031F40E947B09819580935704F0CF803D63
:1032200019F40E947B09F8CF893D29F40E945909BD
:1032300080935904E4CF8A3D21F40E945909819575
:10324000F7CF8B3D31F40E945909819580935A0440
:10325000D6CF8C3D19F40E945909F8CF9FE2980F00
:10326000983020F5282F215D330BA90121E030E0B3
:1032700001C0220F4A95EAF790915604922B909341
:103280005604815D21E030E0A90102C0440F551FC2
:103290008A95E2F7CA0120911203662309F48FC0D0
:1032A000822B809312030E94E50D08958D3D31F429
:1032B00080915004816080935004A1CF8E3D21F411
:1032C000809150048260F7CF8F3D09F580915004C2
:1032D0008460F1CF8D3C59F49091580497FF0DC054
:1032E0001092580441110BC010924E0408C08E3C3D
:1032F000B1F49091580419169CF34423B1F09091C5
:10330000590420915A04922B11F410924F04482F23
:10331000415D550B4830510508F4B3CF70CF8F3C59
:1033200049F447FFEACF1092570490915804911145
:10333000E6CFDACF803D19F41416ACF3DECF893D29
:1033400029F41916D4F610925904D7CF8A3D19F4EE
:1033500097FFD3CFF8CF8B3D29F427FFCECF109224
:103360005A04CBCF8C3D19F41216CCF3C6CF9FE292
:10337000980F983088F4282F215D330BF90121E054
:1033800030E001C0220FEA95EAF7209590915604AB
:10339000292320935604B1CF909150049E7F8D3DF8
:1033A00059F0909150049D7F8E3D31F08F3D09F092
:1033B000A4CF909150049B7F909350049ECF809512
:1033C00082236FCF8823D1F19CEF980F913A78F444
:1033D000ECECF1E09191891303C0DF0111971C928D
:1033E00091E0E23DF907B1F70E94CA0E089590E21C
:1033F000980F983050F4877091E001C0990F8A952A
:10340000EAF7892F0E94990CEFCF9BE5980F933034
:1034100028F490E080E00E941509089598E5980F3F
:103420009B3128F490E080E00E94F008089593E337
:10343000980F933118F460E00E94E3180895CF9339
:10344000C82F8823B1F08CEF8C0F813A00F5ECEC9B
:10345000F1E082ED91E0DF012D91C21761F08A1752
:103460009B07D1F76C2F8AEC91E00E94D6080E944E
:10347000CA0ECF9108952191C21303C0DF011197A5
:103480001C928E179F07B9F70E94CA0EEBCF80E2FD
:103490008C0F883068F4C77021E030E001C0220F43
:1034A000CA95EAF780918802822B80938802DFCF49
:1034B000EBE5EC0FE33040F4F0E0E359FE4F8081A0
:1034C00090E00E941509D5CFE8E5EC0FEB3150F400
:1034D000F0E0EE0FFF1FE059FE4F808191810E94C6
:1034E000F008C7CF83E38C0F833118F661E08C2F8F
:1034F0000E94E318BECF1F93CF93DF93182FEB01E9
:103500000E941F1A209739F4812F0E94E219DF913F
:10351000CF911F9108958FE99FE00197F1F700C0C7
:1035200000002197EFCF0F931F93CF93DF93C62F08
:10353000D42F022FFC0185818823A9F06093BB045E
:103540000E9489159093BA048093B904C77081E0F2
:1035500001C0880FCA95EAF70E94210FDF91CF9131
:103560001F910F9108958091BB04681334C080911E
:10357000B9049091BA040E947A15883C910558F5D7
:1035800010E21D0FCD17B9F080E28C0F883040F4A7
:10359000C77081E001C0880FCA95EAF70E941A0F30
:1035A000183048F481E09D2F977001C0880F9A95DC
:1035B000EAF70E94210F70E060E0802F0E947B1AE2
:1035C000183060F6D77081E001C0880FDA95EAF70D
:1035D0000E941A0FC3CFC77081E001C0880FCA953F
:1035E000EAF7F6CFB0E0A0E0E8EFFAE10C94E62FBE
:1035F0008C01FC018481882341F121E040815181CB
:103600006281738195810E94B80DEC01FC01E85143
:10361000FC47E730F105A8F5EB5DFD4C0C94353027
:1036200026E241EE61EEC8010E94931A80913302B6
:10363000877059F0F8018581882339F08091A902BB
:1036400082FF03C082E00E94690DCDB7DEB7EAE0D9
:103650000C94023027E245EE65EEE5CF26E241EE1E
:1036600060EEE1CF27E245EE64EEDDCF26E241EEEB
:1036700062EED9CF27E245EE66EED5CF28E241E0F3
:10368000EBCFF8018581882309F4D8C31092BB04DD
:10369000CE019057839708F0BBC384E090E00E946E
:1036A0009E309093A9028093A802FE01E150F0475A
:1036B000E232F10520F4E45DFD4C0C94353080914C
:1036C000A80281608093A80295C08091A9028860B9
:1036D0008093A9028FC08091A8028260F3CF80916D
:1036E000A8028460EFCF8091A8028860EBCF809120
:1036F000A9028160EDCF8091A9028260E9CF80911B
:10370000A8028061DFCF8091A8028062DBCF809128
:10371000A8028064D7CF0E94B1158091A80280686A
:10372000D1CF8091A8028C60CDCF8091A902836017
:10373000CFCF8091A8028E7FC5CF8091A902877FCD
:10374000C7CF8091A8028D7FBDCF8091A8028B7FCB
:10375000B9CF8091A802877FB5CF8091A9028E7FD3
:10376000B7CF8091A9028D7FB3CF8091A8028F7EC1
:10377000A9CF8091A8028F7DA5CF8091A8028F7BD1
:10378000A1CF0E94B1158091A8028F779BCF809125
:10379000A802837F97CF8091A9028C7F99CF8091D7
:1037A000A80282FB992790F921E0922790FB82F9E9
:1037B00090FB83F987CF8091A902982F9095917003
:1037C0008E7F892B90FB81F983CF9091A802892F5E
:1037D0008F7B96FF806476CF0E94B1159091A802EE
:1037E000892F97FB87F980586DCF61E08EE090E0DC
:1037F0000E94B4306091A8027091A90284E090E028
:103800000E94D2300E94B11511CF60E0EFCF9091AD
:10381000A802892F8F7E94FF806154CF9091A802D7
:10382000892F8E7F90FF81604DCF9091A902892FC3
:10383000877F93FF88604CCF85E309C3809146045E
:1038400080FF1CC0282F2E7F209346043091470410
:10385000409148045091490460914A0470914B048E
:1038600080914C0490914D040E94F40F80911903B3
:103870008160809319030E94DC09D8CE8160809317
:10388000460461E0869586950E947911CFCE42EA82
:1038900051E16DEA71E10E94D609C8CE4DEA51E1CD
:1038A00062EA71E1F8CF41E351E16BE371E1F3CFFB
:1038B0004BE351E161E371E1EECF47E151E164E2B5
:1038C00071E1E9CF44E251E167E171E1E4CF4DEF0D
:1038D00050E16AE071E1DFCF4AE051E16DEF70E164
:1038E000DACF45E451E16FE571E1D5CF4FE551E124
:1038F00065E471E1D0CF61E081E0C6CF0E94B115EF
:10390000FFEF24E33CE0F15020403040E1F700C0FD
:1039100000000E948C086FEF7FEF90E080E00E9433
:10392000D2300E94CD188091A90282FB882780F9AD
:1039300091E089270E94B211F8018581C081D1816F
:10394000882309F44DC0CE010E94AA0CF82E682FDE
:10395000CE010E941D0DBE018F2D0E945B0B0E94A7
:103960007B0BD82FC92FA82EF801C580B680B29442
:103970003FE0B32280913302877009F1EC2CCC2018
:10398000F9F0892F807F803469F080E28D0F8830D4
:10399000B0F0892F807E803229F4F1E0FD1778F4B1
:1039A000BB2069F08091A90282FF09C082E00E94D9
:1039B000690D809133028770EE24E3948111E12C2C
:1039C000DC2ED2942FE0D2222BE02D1508F46DC00E
:1039D000ED2DF0E0E25BFD4C0C94353080E0AACF99
:1039E000CE010E94EB0CF82EB6CF3C2F3F70F32E89
:1039F000C07F19F0F29490EFF922CC20B9F0FF20AB
:103A000069F080E28D0F883010F0A11009C080911C
:103A10008802F82AF09288020E94CA0E8D2F43C0B5
:103A200080918902F82AF0928902F6CF8D2F0E94A8
:103A3000E219FF20D1F1D05ED83010F0A11004C0FF
:103A40008F2D0E94990C06C0F09480918902F82273
:103A5000F09289020E94CA0E28C08C2F8F70F82E17
:103A6000C07FC03219F0F29480EFF822AA2059F0FA
:103A700091E0A91609F479C0CC2009F485C0BB20D7
:103A800009F447C0CBCF8091A90282FD3EC0CC2073
:103A9000B1F1FF2039F080918802F82AF092880273
:103AA0000E94CA0E80E00E941F1A2D2D2850330B51
:103AB0002430310510F40E944809EE20A9F08091CD
:103AC000330280FD11C0F801158286958695869592
:103AD0000E94800DC8010E94F21A809133028695DF
:103AE000869586950E94570D20E0F801408151810E
:103AF00062817381848195810E94B80DA6CD80E09A
:103B00000E94E219FF2089F29BCFCC20A1F0B110D6
:103B100004C08F2D0E94210FC8CFE1E0BE12C5CF97
:103B200080918A029F2D9823F91609F4BECFF82AB6
:103B3000F0928A02BACFB110B8CF8F2D0E941A0F1F
:103B400090918A028F2D892329F08F2D80958923CA
:103B500080938A02809103029F2D982309F4A5CFB8
:103B6000F094F822F0920302A0CFCC2029F0F5E0E7
:103B7000FB1508F49ACFCDCF24E02B1508F495CF90
:103B80008F2D0E941A0F91CFBB20D1F339E3A312DE
:103B900009C08FEF97EEE3E081509040E040E1F7FD
:103BA00000C000008D2F0E94E2197FCF8C2F8695D8
:103BB0008695837069F0813009F077CF8D2F9C2F27
:103BC0009370C11002C080E090E00E94F0086DCFB9
:103BD0008D2F9C2F9370C11002C080E090E00E9456
:103BE000150963CF6C2D8D2F0E94E3185ECF8C2FAB
:103BF000837009F03FC0C11058CF4D2F42954695B4
:103C00004770440F440F2D2F2F7030E0042E02C058
:103C1000220F331F0A94E2F790E080E0D4FF09C03E
:103C20008FE090E002C0880F991F4A95E2F78095D7
:103C30009095C695C695C370C23099F078F44091BE
:103C4000820250918302C13039F0822B932B84235E
:103C500095230E94900D29CF242B352B822B932B5B
:103C6000F8CF822B932B20918202309183028227FE
:103C70009327EFCF8695CC2011F08C2F817088236D
:103C800009F413CF4D2F429546954770440F440FCA
:103C90002D2F2F7030E0042E02C0220F331F0A9404
:103CA000E2F790E080E0D4FF09C08FE090E002C02E
:103CB000880F991F4A95E2F780959095C695C6950D
:103CC000C370C23099F078F44091C2025091C3029F
:103CD000C13039F0822B932B842395230E94520DFF
:103CE000E4CE242B352B822B932BF8CF822B932BD6
:103CF0002091C2023091C30282279327EFCFCF7069
:103D0000CC2029F08C2F0E94800D8D2F03CF8D2F7A
:103D10000E941A0F8C2F0E94570DC7CE8D2FF2EFE5
:103D2000AF1699F1FA1570F020EFA216D1F031EF2D
:103D3000A31691F0CC2009F45BC0B1106FCE8C2F8C
:103D40008F7127C093EFA91639F1E4EFAE12F2CFCD
:103D50008091A90282FD2EC08C2F8F71CC20D9F2C8
:103D600018C0CC2069F0F4E0FB1508F49ECECF71AA
:103D700081E090E002C0880F991FCA95E2F7B8CFA2
:103D800025E02B1508F491CEF2CF8C2F8F71C11046
:103D9000C2CF0E94800D89CE90E080E0CC2009F453
:103DA0009DCFCF7181E090E002C0880F991FCA9526
:103DB000E2F794CFCC2089F0CF718C2F0E94800D38
:103DC0008091A90282FF07C038E0C39FC00111247F
:103DD0008360809333028C2FDCCF81E00E94690DD9
:103DE00081E08B1508F061CE82E00E94690D5DCE06
:103DF000BB2059F0893309F0D5CE9FEFE7EEF3E011
:103E00009150E040F040E1F7CBCE8C2F8F7183CF03
:103E1000C631FCE7DF0749F5809188028A7A91E094
:103E200009F490E09093020269E2811165E38AEC63
:103E300091E00E94D6080E94CA0EF8CBC6312CE74A
:103E4000D20799F5809102028111F6CC89E2ECEC5F
:103E5000F1E022ED31E09191891303C0DF01119768
:103E60001C922E173F07B9F7E6CFC3303CE7D307C4
:103E700009F451CD50F4C1159CE7D90709F43ECDA2
:103E8000C130DC4709F44DCD57CDCB35FCE7DF071A
:103E900009F4A4CDCC352CE7D20709F444CDCA35BA
:103EA000DC4709F049CD81E045CD809188028272DE
:103EB000FE01E052F847E531F10508F03DCDE65A44
:103EC000FD4C0C943530CF93DF9380913202807F8C
:103ED00009F04DC080913102882309F448C0E09177
:103EE000B80450917F04C0912D02D0912C026091B2
:103EF0002E0270912F0247E05E17C9F18E2F90E0DD
:103F0000E49FF0011124E058FB4F2481222391F11A
:103F1000489FF001499FF00D1124DF01A058BB4FCD
:103F200011962C9111972C1325C02C912D1322C082
:103F300015962C91159721111DC012962D913C912B
:103F4000261B370B283C3105A8F4809132028F7074
:103F5000806180933202EA57FB4F80818F708061CD
:103F600080838CE292E00E94F21A0E94A00CDF9102
:103F7000CF910895FC013196E770BECFA4E1B0E087
:103F8000E4ECFFE10C94E42F8C0186E0F801DE0103
:103F90001F9601900D928A95E1F7F8018481E580E2
:103FA0009CE2A92E92E0B92E90913002911128C086
:103FB000882319F1EE20F1F0C8010E94950DF82E2A
:103FC0008823C1F087E0F801D50101900D928A9510
:103FD000E1F780913002813031F480912C02909190
:103FE0002D020E94DE0C0E94631F8F2D6496ECE070
:103FF0000C940030C8010E94F21AFF24F394F5CF0C
:10400000D080C18082809380F090310220912E0276
:1040100030912F02A401421B530BFF2009F4D9C099
:10402000483C510508F092C08823F9F290912D0286
:1040300080913202282F207F09F056C0C91214C087
:1040400090912C02D91210C0E11048C08F7080618D
:10405000809332028CE292E00E94F21A8091320246
:10406000F8018683F12CC1CFE11038C06C2D8D2D65
:104070000E940F076C2D8D2D0E940F07E82E8111D5
:10408000F1CFDF86C88A8F8598890E94DE0C292FA0
:1040900022952F70243058F49F70223088F0992395
:1040A00099F0F8019681907F79F4FE2C9ECF2A5FDB
:1040B0002F70223068F0C8010E94F21AEF2CF5CF61
:1040C000992311F0882389F3805E883070F3F3CF51
:1040D000803F58F3815F833070F7E7CF80913202E1
:1040E000816080933202BECFC91207C090912C022A
:1040F000D91203C0EE2009F48DC0C8010E94950DAD
:10410000882309F477CFEE2009F474CF809132022E
:10411000803288F020912C0230912D023987288737
:104120009B868A86909130029C871D868E87CE0161
:1041300008960E94F21A87E0F801ACE2B2E0019022
:104140000D928A95E1F70E94631F57CF909132023A
:10415000292F207F51F48CE292E00E94F21A87E02E
:10416000F50111928A95E9F77DCF882309F43DCFB7
:1041700080912D028C1110C080912C02D8120CC09D
:10418000E1100AC09683C8010E94F21A87E0F50187
:1041900011928A95E9F729CFC8010E94950D8823CD
:1041A00009F428CFEE2009F425CF80913202803225
:1041B00010F220912C0230912D023A8329839C82A7
:1041C0008B82909130029D831E828F83CE01019657
:1041D000B0CF483C5105D0F6882309F40ECFFE2C11
:1041E000EE2009F407CF80912D028C1120C0809120
:1041F0002C02D8121CC08091320280FD0FC0982F73
:10420000907F61F08683903F31F0982F907F905F90
:104210008F70892B8683C8010E94F21A87E0F8010B
:10422000ACE2B2E001900D928A95E1F7DECEC801D2
:104230000E94950D81117FCF809132028160809321
:104240003202C8010E94F21AD0CEABE1B0E0EBE23C
:10425000F1E20C94EC2F4E8B5F8B688F798F8A8FF5
:104260009B8F192F9111109289021D8A86E0FE0101
:104270007696DE011F9601900D928A95E1F70A8DE0
:10428000002341F021E04F85588969897A89C80166
:104290000E94B80D0B8B1C8B87E0FE013F96DE0160
:1042A000189601900D928A95E1F7CE0108960E942A
:1042B000BE1F81110CC087E0FE013896DE01119609
:1042C00001900D928A95E1F78C8581110BC017E062
:1042D0008091B80490917F04891331C06B96E4E01B
:1042E0000C94083020917F0430E0C901019687705A
:1042F00099274091B8044817190699F097E0929FC2
:10430000D001939FB00D1124A058BB4FFE013196F0
:1043100001900D929A95E1F780937F040E94A00C82
:10432000D6CF0E94B11510927F041092B80487E096
:10433000ECE2F2E0DF011D928A95E9F7C8CF819F98
:10434000C001112480589B4F0E94BE1F882331F268
:104350008091B80490E00196877099278093B80403
:10436000B7CF4F925F927F928F929F92AF92BF9200
:10437000CF92DF92EF92FF920F931F93CF93DF9331
:10438000CDB7DEB76B970FB6F894DEBF0FBECDBFCB
:104390008E01045F1F4F8AE0D8011D928A95E9F7CC
:1043A00098EAE92E91E0F92E20EBC22E21E0D22EE0
:1043B00077247394AA24A394B12C45EB842E41E076
:1043C000942EF70181917F018F3F09F447C0F89443
:1043D000E82FE295EF70F0E021A18F70A50102C0F7
:1043E000440F551F8A95E2F7CA01922F982B91A38B
:1043F00092A18095892382A3789400C080EB482EF7
:1044000081E0582ED801672D6095F20151912F015E
:104410004D919D01215031095F3F09F4A4C0852FC2
:1044200082958F7090E0FC0180A190E05F7002C0E7
:10443000959587955A95E2F780FD95C04729F90132
:1044400040838414950409F7F701319780818F3FE9
:1044500011F00E94390AF0EAFA95F1F7770CCE14C0
:10446000DF0409F0AECF4AE050E0B8018CE992E0F9
:104470000E947A30009741F02AE0F801ACE9B2E0FE
:1044800001900D922A95E1F7E090A702F12C970197
:1044900023553D4F7901892B09F467C081E0809352
:1044A00040020E94891590933F0280933E02D12CD6
:1044B000C0905B048E010F5F1F4F85E0CC2009F494
:1044C000C1C0D8011D928A95E9F7809197028A3080
:1044D00008F06FC041EE53E1B801C7010E94B40F6C
:1044E000882309F49EC044E752E1B801C7010E9445
:1044F000B40F882309F495C041E353E1B801C70123
:104500000E94B40F882309F48CC041E152E1B80144
:10451000C7010E94B40F882309F483C043E053E12C
:10452000B801C7010E94B40F882309F47AC043EC94
:1045300053E1B801C7010E94B40F882309F471C088
:10454000109297028091A60290E045E050E0B801F9
:1045500083559D4F0E947A3021E020934B02892B96
:10456000E9F5C12C46C046236ACFD0904002DD2039
:1045700009F49DCF80913E0290913F020E947A15EE
:10458000059708F494CF45E050E06CE972E0C7016C
:104590000E947A30892B59F085E0ECE9F2E0D701EE
:1045A00001900D928A95E1F71092400281CFD12CB3
:1045B000FBCF80914102909142020E947A15843F84
:1045C000914008F087CF80914B02882351F285E01B
:1045D000F80111928A95E9F710924B02A091A60278
:1045E000B0E0A355BD4F85E0F80101900D928A958A
:1045F000E1F78C2D8D296B960FB6F894DEBF0FBEB8
:10460000CDBFDF91CF911F910F91FF90EF90DF9081
:10461000CF90BF90AF909F908F907F905F904F9082
:104620000895809197028F3F31F08F5F80939702BA
:104630008A3008F487CF0E948915909342028093B4
:104640004102C1CFF701ADE4B2E001900D928A952D
:10465000E1F765E070E08DE492E00E94A9098093A3
:104660004C028090520290905302A0905402B0905D
:1046700055028091470290914802A0914902B09161
:104680004A0288169906AA06BB06B1F08092470234
:1046900090924802A0924902B0924A020E949D085C
:1046A000861A970AA80AB90A8092980290929902EB
:1046B000A0929A02B0929B0280915602909157026A
:1046C0009093C3028093C202809158029091590244
:1046D000909383028093820290915B0280915C02AE
:1046E00020915A0220938802909389029091A90206
:1046F00092FF05C090918A02891380938A028BE011
:10470000EDE5F2E0D80101900D928A95E1F78091F4
:104710005D0286958695E0905E02B0905F02A09063
:104720006002F090670210926702FF20A9F0F0FE8D
:104730000BC029819091460420FF62C09160909344
:10474000460460E00E947911F1FE06C020E04A2D87
:104750006B2D8E2D0E941A1080915C04811149CF1F
:10476000409143025091440260914502709146028B
:104770002FB7F8948091640490916504A091660429
:10478000B09167042FBF481759076A077B0709F4E0
:1047900030CF0E949D08609343027093440280933F
:1047A00045029093460289E0E8E6F2E0D8010190E4
:1047B0000D928A95E1F7FE01769686E0DF011D9263
:1047C0008A95E9F74E895F89688D798D8A8D9B8DF1
:1047D0000E94160A2A833B834C835D836E837F830A
:1047E00066E070E0CE0102960E94A909898389E003
:1047F000F801A8E6B2E001900D928A95E1F7B1CEFA
:104800009E7F9093460480911903816080931903E1
:104810000E94DC0999CFA6E0B0E0E1E1F4E20C945B
:10482000EC2F0E9489158C0180913C0290913D02F1
:104830008017910781F019821A820E948915682FCA
:1048400049815A81792F80E090E00E9425211093C0
:104850003D0200933C022696E4E00C940830A2E16D
:10486000B0E0E5E3F4E20C94E92FD0905B04DD20A6
:1048700009F418C180910002909101020E947A15FA
:10488000029708F40FC10E9489159093010280934A
:10489000000201E010E02CE230E044ED51E06DE078
:1048A00070E088EE0E94782D21E030E043E551E091
:1048B0006EEE7EEE88EE0E94212D0091D80186E0FA
:1048C000E1E1F3E0DE01179601900D928A95E1F7A0
:1048D00086E0FE013796DE01119601900D928A95D1
:1048E000E1F786E0FE013196DE011D9601900D9202
:1048F0008A95E1F71091D4011130E9F570E060E09C
:1049000081ED0E947B1AD090D301DD2019F0109226
:10491000D301D12C102B09F4DEC00091D9011091E4
:10492000DA01E090DB01F090DC018091D20181118D
:1049300003C081E08093D2018091D401823039F4A8
:104940008091D301811103C081E08093D3011027AE
:1049500001271027FE24EF24FE248091D501823008
:10496000B1F08430E1F108388FEF18070CF04EC039
:1049700010E000E04FC08091D50110E0813051F689
:1049800070E060E082ED0E947B1A12E0C2CF70E01E
:1049900060E0F7FE0EC08AED0E947B1A2FEF80E7E1
:1049A00092E0215080409040E1F700C00000D12CFF
:1049B000DACF89ED0E947B1A2FEF80E792E0215039
:1049C00080409040E1F700C0000008382FEF120748
:1049D0000CF47EC0D12C0937110554F620C060E1DB
:1049E0007FE0101611060CF062C08DE291E00E948B
:1049F000DD0D8DE20E941F1A8DE20E94E21965E032
:104A00007FE08DE291E00E94DD0DD12C0937110588
:104A10000CF0AECF98E8E9169FEFF90624F029E7ED
:104A2000E216F10414F0F12CE12CDD2009F450C061
:104A300066277727601B710B072E000C880B990BDC
:104A40000E94203120E030E040E05FE30E948431AA
:104A50000E94E8306F87662777276E197F09072E37
:104A6000000C880B990B0E94203120E030E040E0E0
:104A70005FE30E9484310E94E830688B86E0FE018B
:104A80003D96DE01119601900D928A95E1F786E040
:104A9000FE013196A1E1B3E001900D928A95E1F714
:104AA0000E94E50D81E06296E7E00C9405308EE20D
:104AB00093E00E94DD0D8EE20E941F1A8EE20E949A
:104AC000E21965E07FE08EE293E00E94DD0D6FCF9A
:104AD0001F86188AD3CF1092D201E4CF1F921FB63F
:104AE0001F9211248F939F93AF93BF938091630480
:104AF000811113C08091640490916504A0916604B3
:104B0000B09167044196A11DB11D809364049093F8
:104B10006504A0936604B0936704BF91AF919F9121
:104B20008F911F901FBE1F901895CDB7DEB72E979F
:104B30000FB6F894DEBF0FBECDBF85B7806885BFC6
:104B400085B7806885BF84B7877F84BF0FB6F89428
:104B5000A895809160008861809360001092600049
:104B60000FBE80E890E00FB6F894809361009093B8
:104B700061000FBE87E39AE09093C9018093C8015A
:104B80000E942E070E94CF078091E20084608093EC
:104B9000E2007894809175048823A1F01091E900D7
:104BA0001F709091EC00892F817090FD80E8182B88
:104BB0001092E9008091E80083FD0E94D8151F70D3
:104BC0001093E90082E084BD93E095BD9AEF97BD14
:104BD00080936E00109298021092990210929A029D
:104BE00010929B0288EC90E01091E300111F1127B6
:104BF000111F61F4AFE3BCE91197F1F700C00000A9
:104C0000019791F70E942E071092750410935B0490
:104C100090E080E00E949E30863E9E4F11F00E9400
:104C20000D148EE090E00E94903091E0811101C05F
:104C300090E090935C0490935001882309F476C02F
:104C40001092670182E38093680180915B04811177
:104C50000E94682E809150018091500195E0811151
:104C600090E09093A70285E0891B8093A60208EA52
:104C700011E0F80181918F018F3F11F00E94390AF4
:104C8000F1E0003B1F07A9F700EB11E0D8018D917F
:104C90008D018F3F11F00E94390AB1E0053B1B07DF
:104CA000A9F78AE0EDEAF2E0DF01282F1D922A95AC
:104CB000E9F7ECE9F2E0DF011D928A95E9F790E06F
:104CC00080E00E949E30863E9E4F11F00E940D149F
:104CD00082E090E00E9490308093B70284E090E000
:104CE0000E949E309093A9028093A8020E94B12155
:104CF000EFEFF6E721E0E150F0402040E1F700C09F
:104D000000000E94B12180915C04E5E08111E0E0A7
:104D1000F0E0E355FD4F808180FF0CC06FEF7FEF27
:104D200090E080E00E94D2300E948C0882E3809361
:104D3000670189CF83E090E00E94903090E00E946C
:104D4000900D1092050380E88093BC040E94D32B41
:104D50006BE070E083E493E00E94E70F882379F131
:104D60008091050365E070E081FD83C18EE393E0EF
:104D70000E94E70F882319F16DE070E08CE293E068
:104D80000E94E70F8823D9F0E5ECF4E080E094E09E
:104D9000DF019C011D9221503040E1F7F093C608DD
:104DA000E093C5088FEF9FEF9093C4048093C304F2
:104DB00081E0809309038093C402109206038091DE
:104DC000AA02811182C088E090E00E9498304B01D5
:104DD0005C0184E290E00E949030282F30E040E0B7
:104DE00050E060E070E080E090E000E20E943B3044
:104DF000282939294A295B292093460430934704FE
:104E0000409348045093490460934A0470934B04C0
:104E100080934C0490934D04309119033360309388
:104E200019032C7F09F043C025E02093460410921B
:104E300047042FEF2093480420E820934904109260
:104E40004A0425E030E04FEF50E860E00E94F40FA4
:104E500088E090E00E9498306B017C0184E290E051
:104E60000E949030282F30E040E050E060E070E099
:104E700080E090E00E943B30B22FA32FF42FE52F6B
:104E80005B0197018601BC29A12BFE29E32BB0937E
:104E90004604A0934704F0934804E09349046093C8
:104EA0004A04B0924B0480934C0490934D040E94AA
:104EB000000A8091460480FF05C060E086958695D3
:104EC0000E94791181E08093AA0280915B0488237B
:104ED00009F4D2C004E010E022E030E044E551E003
:104EE0006AE775E088EE0E94212D07E010E021E0DE
:104EF00030E043E551E06EEE7EEE88EE0E94212D1B
:104F000004E010E022E030E041E551E06EE775E0BA
:104F100088EE0E94212D07E010E021E030E043E51B
:104F200051E06EEE7EEE88EE0E94212D04E010E04E
:104F300022E030E041E551E06CE775E088EE0E9448
:104F4000212D07E010E021E030E043E551E06EEE76
:104F50007EEE88EE0E94212D04E010E022E030E099
:104F600041E551E060E875E088EE0E94212D07E000
:104F700010E021E030E043E551E06EEE7EEE88EE99
:104F80000E94212D04E010E022E030E041E551E0F4
:104F900062E875E088EE0E94212D07E010E021E034
:104FA00030E043E551E06EEE7EEE88EE0E94212D6A
:104FB00086E591E09093600480935F04E0E4DE2E48
:104FC00022242394312C80917504FF24F39400E172
:104FD00012E1853009F4B9C00E94B12158EBE52EE9
:104FE00052E0F52E6DEAA62E62E0B62ED501F7014D
:104FF00091918D9122E0E23CF20709F4C1C098172B
:10500000B9F370905B0410E055245394D5010D91D1
:105010005D01F70181907F01801629F18026C12C66
:1050200099249394882D8921B1F07720A1F0CF8223
:1050300018870E9489159A8789875B8691E0802F5F
:10504000892109F490E09C874F81588569857A858C
:105050008B850E942521C394990CF8E0CF12E2CFF2
:10506000F701319700831F5F1A3081F60E94500AC2
:105070008BC089E393E07CCE0E946B2E80915B0411
:10508000882309F495CF26CF80917504843009F4E4
:105090004CC08091AC02811112C0F092AC028091A0
:1050A0004604982F91709093AB028E7F80934604B4
:1050B000809119038160809319030E94DC0980911B
:1050C0000903882369F08091C402882349F062E0D3
:1050D00070E08EE493E00E94E70F81111092C40209
:1050E0000E942F241092630488E190E00FB6F89498
:1050F000A895809360000FBED092600083B7817F37
:10510000846083BF83B7816083BF7894889583B7B9
:105110008E7F83BF0FB6F894A89580916000886158
:1051200080936000109260000FBE80917404882309
:1051300061F00E94B121EDEAF2E081918111C1C2DA
:10514000A7EBB2E0AE17BF07C1F7809175048530B9
:1051500009F49ACF0E94B1150E9448091092AC023E
:105160008091AB02882309F437CF80914604816097
:105170008093460460E0869586950E9479112CCF35
:1051800098133FCF0E940B240E942F2481110E946C
:10519000500A8091090381118EC086E0E5E5F4E0B4
:1051A000DE01119601900D928A95E1F71092570455
:1051B000109258041092590410925A048B819C81C9
:1051C000892B09F02DC28D819E81892B09F447C05E
:1051D00080915104909152040E947A159C01909103
:1051E0004F04992309F483C223333105C0F19F3F53
:1051F00019F09F5F90934F041D81112359F00E9475
:1052000059099FEF11160CF491E0899F802D11240C
:10521000809359041E81112359F00E9459099FEF70
:1052200011160CF491E0899F802D112480935A046B
:1052300080915904882399F010915A04112379F030
:105240000E949B09882309F438C280935904812F56
:105250000E949B09882309F432C280935A04BE013C
:105260006F5F7F4F85E594E00E94A90881110CC013
:105270008091570490915804892B90915904892B5F
:1052800090915A04892B11F00E94951586E0FE0139
:105290003196A5E5B4E001900D928A95E1F70E9460
:1052A000480990910A03891709F48DCE80930A0367
:1052B0000E949D0885CE80910703909108030E946B
:1052C0007A15C29708F467C00E9489159093080365
:1052D0008093070360E080E00E94BF0961E080E006
:1052E0000E94BF0980EB93E00E94CC0662E080E060
:1052F0000E94BF0980E993E00E94CC0663E080E051
:105300000E94BF0980E793E00E94CC0664E080E041
:105310000E94BF0980E593E00E94CC0665E080E032
:105320000E94BF0986ED93E00E94BC0E66E080E01B
:105330000E94BF0980ED93E00E94BC0E62E088E00D
:105340000E94BF098091C2029091C302009709F4A4
:105350007AC081FF59C08CEB95E00E94CC0663E0D7
:1053600088E00E94BF098CE995E00E94CC0664E0C9
:1053700088E00E94BF098CE795E00E94CC0665E0BA
:1053800088E00E94BF098CE595E00E94CC0662E0AF
:105390008FE00E94BF098091C3049091C404892BBF
:1053A00009F4FBCE80910903882309F4F6CE80919D
:1053B00006038111F2CE8091C40281110BC062E01C
:1053C00070E08CED95E00E94E70F882319F081E0F2
:1053D0008093C4022091C3043091C4042115310587
:1053E00009F4DBCE80E0082F10E07101082E02C026
:1053F000EE0CFF1C0A94E2F7A70142235323452B2E
:1054000009F057C08F5FEFCF82FF1BC08CE395E0A0
:105410000E94CC0663E088E00E94BF098CE195E021
:105420000E94CC0664E088E00E94BF098CEF94E003
:105430000E94CC0665E088E00E94BF098CED94E0F4
:10544000A4CF80FF1BC08CEB94E00E94CC0663E0ED
:1054500088E00E94BF098CE994E00E94CC0664E0D9
:1054600088E00E94BF098CE794E00E94CC0665E0CA
:1054700088E00E94BF098CE594E087CF8CE394E03C
:105480000E94CC0663E088E00E94BF098CE194E0B2
:105490000E94CC0664E088E00E94BF098CEF93E094
:1054A0000E94CC0665E088E00E94BF098CED93E085
:1054B0006CCF9091050390FF9BC0880F880F880FD9
:1054C0008093620110926501895F8093630187E098
:1054D0008093660124E630E047E050E060E671E04A
:1054E00088E70E944D2C892B09F057CEA80126E0B1
:1054F000440F551F2A95E1F78091050380FF89C06D
:10550000E5ECF2E0DF012D2D1D922A95E9F78DEBF8
:1055100091E09E878D8705EB11E095EC692E91E077
:10552000792EAD85BE852D91BE87AD87F80141905E
:105530008F01440E552E511CC2018B539B4F2C01E1
:10554000E22FF0E0EB53FD4F30E020E087E0982EB3
:10555000921AC22C022E01C0CC0C0A94EAF7520116
:1055600090E0D5018D915D018C21692D691B6770DB
:10557000862E062E000C770BB82F01C0BB0F8A9425
:10558000EAF78B2E7195619571096770772701C0D5
:1055900086956A95EAF7882A8081882A80829F5FAB
:1055A0009830F9F62F5F3F4F31962830310571F66C
:1055B000ED85FE856E167F0609F0B3CF04E610E098
:1055C00020E430E045EC52E060E488E70E94D72C0C
:1055D000892B09F0E2CDE094F0948091C30490917E
:1055E000C404E822F922F092C404E092C304D5CDA9
:1055F0008295880F880F8074809362019801369598
:10560000279520936501815C809363012093660157
:1056100061CF4B535B4F04E610E020E430E0D4CF81
:1056200080915304909154040E947A159C019091AA
:105630004E04992309F460C02531310508F4C3CD27
:105640009F3F19F09F5F90934E041B81112359F0E7
:105650000E947B099FEF11160CF491E0899F802D29
:105660001124809357041C81112359F00E947B0957
:105670009FEF11160CF491E0899F802D11248093E7
:10568000580480915704882309F49DCD1091580443
:10569000112309F498CD0E949B09882351F080932F
:1056A0005704812F0E949B09882329F08093580476
:1056B0008ACD81E0F4CF81E0F9CF81E0C6CD81E0F1
:1056C000CCCD09BD19BD09B400FEFDCF8091D80035
:1056D0008F7D8093D8008091E00082608093E0000D
:1056E0008091E00081FDFCCF0E94B1152ECD2B30C2
:1056F000310508F07ECDB3CD2B30310508F0A2CFB7
:1057000062CDEF92FF920F931F93CF93DF93182FE9
:10571000EB011092BC0084EA8093BC000E948915C2
:105720007C018091BC0087FF27C08091B900887FF1
:10573000883029F08091B900887F803189F51093F5
:10574000BB0084E88093BC000E9489158C01809185
:10575000BC0087FF1EC02091B900287F90E080E048
:10576000283191F081E090E0203411F490E080E065
:1057700091958195910908C0C7010E947A15C817B3
:10578000D90778F68EEF9FEFCDB7DEB7E6E00C9441
:105790000630C8010E947A15C817D907C0F6F2CFA3
:1057A0008FEF9FEFF1CF1092B9008CE08093B8009B
:1057B00008950F931F93CF93DF93EB018093BB006A
:1057C00084E88093BC000E9489158C018091BC0004
:1057D00087FF11C02091B900287F81E090E0283236
:1057E00011F490E080E0919581959109DF91CF913E
:1057F0001F910F910895CF3FDC0741F3C8010E942C
:105800007A15C817D90710F78EEF9FEFEFCF0F93D8
:105810001F93CF93DF93EC0184EC8093BC000E9434
:1058200089158C018091BC0087FF08C08091BB0066
:1058300090E0DF91CF911F910F910895CF3FDC074A
:1058400089F3C8010E947A15C817D90758F78EEF57
:105850009FEFEFCF0F931F93CF93DF93EC0184E87B
:105860008093BC000E9489158C018091BC0087FF49
:1058700008C08091BB0090E0DF91CF911F910F9104
:105880000895CF3FDC0789F3C8010E947A15C81735
:10589000D90758F78EEF9FEFEFCFB0E0A0E0E3E538
:1058A000FCE20C94E32F782E5B016A0189010E94CF
:1058B00089154C01C1E0D0E00431110558F0C5E074
:1058C000D0E00F3F100731F0C80164E170E00E94A2
:1058D000CA2FEB01BE01872D0E94812B7C0197FF0F
:1058E00009C00F3F1007B1F3C4010E947A150817D1
:1058F000190780F7E501CA0CDB1CCC15DD0511F09A
:10590000F7FE09C084E98093BC00C701CDB7DEB7BC
:10591000EDE00C94FF2FB80189910E94D92B7C01F6
:10592000ECCFB0E0A0E0E7E9FCE20C94E32F782EA6
:105930005B016A0189010E9489154C01C1E0D0E038
:105940000431110558F0C5E0D0E00F3F100731F0E9
:10595000C80164E170E00E94CA2FEB01BE01872DEF
:105960000E94812B7C0197FF09C00F3F1007B1F304
:10597000C4010E947A150817190780F7E501CA0CBF
:10598000DB1CCC15DD0511F0F7FE09C084E980931E
:10599000BC00C701CDB7DEB7EDE00C94FF2FFE01D0
:1059A0008491B8010E94D92B7C012196EACFB0E006
:1059B000A0E0EDEDFCE20C94E22F682E762E5A0169
:1059C00069010E9489154C01C1E0D0E00431110544
:1059D00058F0C5E0D0E00F3F100731F0C80164E196
:1059E00070E00E94CA2FEB01BE01862D0E94812B20
:1059F0007C0197FF1DC00F3F1007B1F3C4010E9447
:105A00007A150817190780F784E98093BC00C7014D
:105A1000CDB7DEB7EEE00C94FE2FB80189910E945D
:105A2000D92B7C01CC16DD0679F3F7FEF6CFECCF4F
:105A3000B801872D0E94D92B7C01E501CA0CDB1C23
:105A4000F1CFB0E0A0E0E7E2FDE20C94E12F582EA8
:105A5000B62E672EA42E752E69010E9489154C0161
:105A6000EE24E394F12C0431110560F085E0E82E7A
:105A7000F12C0F3F100731F0C80164E170E00E9483
:105A8000CA2F7B01B701852D0E94812BEC0197FF66
:105A900012C00F3F1007B1F3C4010E947A15081716
:105AA000190780F784E98093BC00CE01CDB7DEB73B
:105AB000EFE00C94FD2FB801862D0E94D92BEC014C
:105AC00097FDF0CFB8018B2D0E94D92BEC01EA2C69
:105AD000F72CCE0CDF1CCE14DF0421F3D7FDE2CF70
